:100000000C9461000C947E000C947E000C947E0095
:100010000C947E000C947E000C947E000C947E0068
:100020000C947E000C947E000C947E000C947E0058
:100030000C947E000C947E000C947E000C947E0048
:100040000C9431010C947E000C947E000C947E0084
:100050000C947E000C947E000C947E000C947E0028
:100060000C947E000C947E00000000002400270009
:100070002A0000000000250028002B0000000000DE
:1000800023002600290004040404040404040202DA
:100090000202020203030303030301020408102007
:1000A0004080010204081020010204081020000012
:1000B0000008000201000003040700000000000027
:1000C000000011241FBECFEFD8E0DEBFCDBF11E08E
:1000D000A0E0B1E0E4E9F4E002C005900D92A230A6
:1000E000B107D9F721E0A2E0B1E001C01D92AD3027
:1000F000B207E1F70E947B010C9448020C940000C7
:10010000833081F028F4813099F08230A9F008958D
:100110008730A9F08830C9F08430B1F48091800034
:100120008F7D03C0809180008F7780938000089539
:1001300084B58F7784BD089584B58F7DFBCF809182
:10014000B0008F778093B00008958091B0008F7DCC
:10015000F9CFCF93DF93282F30E0F901E255FF4F1D
:100160008491F901E656FF4FD491F901EA57FF4F08
:10017000C491CC23A1F081110E948000EC2FF0E00B
:10018000EE0FFF1FE458FF4FA591B491EC91ED23C2
:1001900081E090E009F480E0DF91CF91089580E064
:1001A00090E0FACF1F93CF93DF93282F30E0F9012F
:1001B000E255FF4F8491F901E656FF4FD491F901C2
:1001C000EA57FF4FC491CC23A9F0162F81110E944A
:1001D0008000EC2FF0E0EE0FFF1FEE58FF4FA591CF
:1001E000B4918FB7F894EC91111108C0D095DE232B
:1001F000DC938FBFDF91CF911F910895DE2BF8CF55
:10020000CF93DF9390E0FC01E656FF4F24918A578D
:100210009F4FFC0184918823D1F090E0880F991FB3
:10022000FC01E859FF4FA591B491FC01EE58FF4F36
:10023000C591D49161110EC09FB7F8948C91E22FB3
:10024000E0958E238C932881E223E8839FBFDF9182
:10025000CF9108958FB7F894EC91E22BEC938FBF78
:10026000F6CF1F920F920FB60F9211242F933F9348
:100270008F939F93AF93BF938091090190910A014F
:10028000A0910B01B0910C013091080123E0230FE4
:100290002D3758F50196A11DB11D209308018093BB
:1002A000090190930A01A0930B01B0930C01809176
:1002B000040190910501A0910601B09107010196FA
:1002C000A11DB11D8093040190930501A093060127
:1002D000B0930701BF91AF919F918F913F912F9163
:1002E0000F900FBE0F901F90189526E8230F0296CF
:1002F000A11DB11DD2CF789484B5826084BD84B530
:10030000816084BD85B5826085BD85B5816085BD10
:1003100080916E00816080936E00109281008091C8
:100320008100826080938100809181008160809350
:100330008100809180008160809380008091B10075
:1003400084608093B1008091B00081608093B000A0
:1003500080917A00846080937A0080917A00826034
:1003600080937A0080917A00816080937A008091F6
:100370007A00806880937A001092C10060E083E088
:100380000E94000160E084E00E94000160E089E0DA
:100390000E94000160E08AE00E94000161E08BE0C1
:1003A0000E94000161E08CE00E94000180E0E82EE4
:1003B00080E0F82E89E00E94A9008C0181E00115FF
:1003C000110509F480E0809303018AE00E94A900EE
:1003D000EC0181E0209709F480E08093020183E042
:1003E0000E94A90021E0892B09F420E0209301015B
:1003F00084E00E94A90021E0892B09F420E02093E9
:100400000001012B69F061E08BE00E94D20083E0E3
:100410000E94A90021E0892B09F420E0209301012A
:100420008091010181110DC083E00E94A90021E0AB
:10043000892B09F420E02093010160E08BE00E9409
:10044000D200CD2B69F061E08CE00E94D20084E004
:100450000E94A90021E0892B09F420E020930001EB
:100460008091000181110DC084E00E94A90021E06B
:10047000892B09F420E02093010160E08CE00E94C8
:10048000D200E114F10409F495CF0E94000092CF4C
:04049000F894FFCF0E
:02049400010164
:00000001FF
