:100000000C9463000C948B000C948B000C941E03D6
:100010000C941E030C941E030C948B000C948B0008
:100020000C948B000C948B000C948B000C948B0024
:100030000C948B000C948B000C948B000C948B0014
:100040000C947C020C948B000C94EC020C94C60271
:100050000C948B000C948B000C948B000C948B00F4
:100060000C948B000C948B000000000024002700EF
:100070002A0000000008000201000003040700003D
:1000800000000000000000000000230026002900FE
:1000900000000000250028002B00040404040404D0
:1000A0000404020202020202030303030303010227
:1000B00004081020408001020408102001020408F6
:1000C0001020E203C10511241FBECFEFD8E0DEBF30
:1000D000CDBF11E0A0E0B1E0E0E3FCE002C005909C
:1000E0000D92A632B107D9F722E0A6E2B1E001C035
:1000F0001D92AF32B207E1F710E0C2E6D0E004C0D3
:100100002197FE010E940506C136D107C9F70E945A
:100110008D040C940B060C940000AF92BF92CF920A
:10012000DF92EF92FF920F931F93CF93DF936C01B7
:100130007B018B01040F151FEB015E01AE18BF0898
:10014000C017D10759F06991D601ED91FC9101904A
:10015000F081E02DC6010995892B79F7C501DF9162
:10016000CF911F910F91FF90EF90DF90CF90BF90B4
:10017000AF900895FC01538D448D252F30E0842FDE
:1001800090E0821B930B541710F0CF9608950197BF
:100190000895FC01918D828D981761F0A28DAE0FAC
:1001A000BF2FB11D5D968C91928D9F5F9F73928F33
:1001B00090E008958FEF9FEF0895FC01918D828D5F
:1001C000981731F0828DE80FF11D858D90E008952C
:1001D0008FEF9FEF0895FC01918D228D892F90E084
:1001E000805C9F4F821B91098F739927089583E745
:1001F00091E00E94EB0021E0892B09F420E0822F9E
:10020000089580E090E0892B29F00E94F700811189
:100210000C9400000895FC01A48DA80FB92FB11D06
:10022000A35ABF4F2C91848D90E001968F7399272C
:10023000848FA689B7892C93A089B1898C9183700A
:1002400080648C93938D848D981306C00288F38903
:10025000E02D80818F7D80830895EF92FF920F9330
:100260001F93CF93DF93EC0181E0888F9B8D8C8D62
:1002700098131AC0E889F989808185FF15C09FB756
:10028000F894EE89FF896083E889F9898081837019
:10029000806480839FBF81E090E0DF91CF911F91C8
:1002A0000F91FF90EF900895F62E0B8D10E00F5FE9
:1002B0001F4F0F731127E02E8C8D8E110CC00FB6BF
:1002C00007FCFACFE889F989808185FFF5CFCE0157
:1002D0000E940B01F1CFEB8DEC0FFD2FF11DE35AC6
:1002E000FF4FF0829FB7F8940B8FEA89FB898081DA
:1002F0008062CFCFCF93DF93EC01888D8823B9F054
:10030000AA89BB89E889F9898C9185FD03C0808120
:1003100086FD0DC00FB607FCF7CF8C9185FFF2CF9D
:10032000808185FFEDCFCE010E940B01E9CFDF91E7
:10033000CF910895CF93DF9390E0FC01E255FF4FFA
:10034000249186569F4FFC0184918823D1F090E040
:10035000880F991FFC01E859FF4FA591B491FC014A
:10036000E057FF4FC591D49161110EC09FB7F8942B
:100370008C91E22FE0958E238C932881E223E883F1
:100380009FBFDF91CF9108958FB7F894EC91E22B46
:10039000EC938FBFF6CF2091680130916901281747
:1003A000390771F49091660180916701981741F0C7
:1003B000E0916601F0E0EA5DFE4F808190E00895F3
:1003C0008FEF9FEF08950895EF92FF920F931F9381
:1003D000CF93DF93DC015C96ED90FC905D97E11488
:1003E000F10479F481E090E013969C938E93129738
:1003F00090E080E0DF91CF911F910F91FF90EF90FF
:1004000008955196ED91FC91529750968C9150978A
:10041000982F90950FB75E962C915E97122F1270C1
:1004200021FD6095F8942081112319F1282B208358
:10043000E7012197F1F728E0462F50E0308160FF77
:100440001AC0382B3083E7012197F1F7BA0175956F
:100450006795215089F7112381F08081892380835A
:100460000FBF5C968D919C910197F1F781E090E030
:10047000C1CF2923DCCF3923E5CF9081892BEFCF62
:1004800020916801309169012817390771F4809132
:1004900067012091660190E0805C9F4F821B91096B
:1004A00060E470E00E94DD05089590E080E008952A
:1004B000209168013091690128173907B9F49091AA
:1004C000660180916701981789F0E0916601F0E07C
:1004D000EA5DFE4F80812091660130E02F5F3F4F43
:1004E0002F7333272093660190E008958FEF9FEFDD
:1004F000089590E080E008951F920F920FB60F923A
:1005000011242F933F938F939F93AF93BF93809129
:100510006F0190917001A0917101B09172013091C1
:100520006E0123E0230F2D3758F50196A11DB11D53
:1005300020936E0180936F0190937001A0937101DD
:10054000B093720180916A0190916B01A0916C014E
:10055000B0916D010196A11DB11D80936A01909328
:100560006B01A0936C01B0936D01BF91AF919F910E
:100570008F913F912F910F900FBE0F901F90189564
:1005800026E8230F0296A11DB11DD2CF1F920F9214
:100590000FB60F9211242F933F934F935F936F9356
:1005A0007F938F939F93AF93BF93EF93FF9383E7D3
:1005B00091E00E940B01FF91EF91BF91AF919F914C
:1005C0008F917F916F915F914F913F912F910F90FC
:1005D0000FBE0F901F9018951F920F920FB60F929B
:1005E00011242F938F939F93EF93FF93E0918301B7
:1005F000F09184018081E0918901F0918A0182FD6E
:100600001BC0908180918C018F5F8F7320918D0131
:10061000821741F0E0918C01F0E0ED58FE4F958F8C
:1006200080938C01FF91EF919F918F912F910F906B
:100630000FBE0F901F9018958081F4CF1F920F92DC
:100640000FB60F9211242F933F934F935F936F93A5
:100650007F938F939F93AF93BF93EF93FF93E0911B
:100660006801F0916901309749F0A685B7858585C5
:10067000968D91FF14C09C918923A1F4FF91EF9175
:10068000BF91AF919F918F917F916F915F914F91AA
:100690003F912F910F900FBE0F901F9018959C9136
:1006A000892361F7A389B4899C91858980958923E1
:1006B0008C93868997890197F1F7608D718DA68556
:1006C000B785558538E020E0CB010197F1F7822FFF
:1006D00090E095958795282F4C91452309F0206847
:1006E000315091F7868D81FD20958091670190E0D2
:1006F00001968F73992730916601381799F0A09170
:100700006701B0E0AA5DBE4F2C9380936701828D94
:10071000938D0197F1F7A389B4898C919589892BE1
:100720008C93ACCF868D8160868FF1CF90E0FC01F9
:10073000EE58FF4F2491FC01E255FF4F3491FC012C
:10074000E656FF4FE491EE23C9F0222339F023301F
:1007500001F1A8F4213019F1223029F1F0E0EE0F77
:10076000FF1FE057FF4FA591B4918FB7F894EC911C
:10077000611126C030953E233C938FBF08952730EA
:10078000A9F02830C9F0243049F7809180008F7D8E
:1007900003C0809180008F7780938000DFCF84B585
:1007A0008F7784BDDBCF84B58F7DFBCF8091B00088
:1007B0008F778093B000D2CF8091B0008F7DF9CF3A
:1007C0003E2BDACF109276011092750188EE93E0FD
:1007D000A0E0B0E08093770190937801A093790135
:1007E000B0937A0124E031E03093740120937301D7
:1007F00025EC30E03093800120937F0124EC30E041
:10080000309382012093810120EC30E03093840109
:100810002093830121EC30E0309386012093850101
:1008200022EC30E0309388012093870126EC30E001
:1008300030938A012093890110928C0110928D01CE
:1008400010928E0110928F011092130210921202D8
:100850008093140290931502A0931602B09317028E
:1008600086E191E09093110280931002109227028A
:1008700010922602109229021092280210922B0246
:1008800010922A0210922D0210922C0260912E02D8
:100890006E7F6D7F60932E026695617081E06827A0
:1008A00083E00E94960361E083E00E949A01E1EBFD
:1008B000F0E0E491E0932002EDE9F0E0E491F0E073
:1008C000EE0FFF1FE057FF4F859194919093220206
:1008D0008093210260E082E00E949A0180912E02C2
:1008E00081FD04C061E082E00E94960382E0809373
:1008F0001C02E0EBF0E0E491E0931D02ECE9F0E093
:10090000E491F0E0EE0FFF1FEA57FF4F85919491BD
:1009100090931F0280931E020895789484B582609C
:1009200084BD84B5816084BD85B5826085BD85B593
:10093000816085BD80916E00816080936E00109211
:10094000810080918100826080938100809181008C
:10095000816080938100809180008160809380001D
:100960008091B10084608093B1008091B00081607B
:100970008093B00080917A00846080937A008091A7
:100980007A00826080937A0080917A0081608093FF
:100990007A0080917A00806880937A001092C1007A
:1009A00060E082E00E949A0161E083E00E949A0187
:1009B00010922B0210922A02109229021092280201
:1009C00010922702109226028DE991E090932D0259
:1009D00080932C0290911C02963108F047C02DEBB9
:1009E00030E030932702209326022BE931E0309348
:1009F0002902209328022CE231E030932B0220932D
:100A00002A022091680084E0983048F031E09E305E
:100A100008F430E081E001C0880F3A95EAF7822BB4
:100A2000809368002DE630E0983050F02BE630E0FF
:100A30009E3030F02CE630E0963110F030E020E0CF
:100A40003093240220932302292F30E0983008F0BD
:100A50008BC081E001C0880F9A95EAF78093250248
:100A600080912C0290912D020197F1F780912A023A
:100A700090912B02892B49F1E0916801F091690175
:100A800082E0E031F80709F1309739F0A389B489A1
:100A90009C918589809589238C9380912E028E7FED
:100AA00080932E02109267011092660180E192E01D
:100AB0009093690180936801E0912302F0912402F0
:100AC000808190912502892B8083E0918301F091B0
:100AD000840182E08083E0917F01F09180011082A7
:100AE000E0918101F09182018FEC808310928B0163
:100AF000E0918701F091880186E08083E091850193
:100B0000F0918601808180618083E0918501F09180
:100B10008601808188608083E0918501F091860163
:100B2000808180688083E0918501F09186018081D9
:100B30008F7D8083C0E0D0E080E192E00E94580287
:100B40008A35910541F441E050E064E271E083E7C9
:100B500091E00E948D00209779F30E94F70088238E
:100B600059F30E940000E8CF9E3040F4285031092C
:100B700081E001C0880F2A95EAF770CF2E50310925
:100B8000F7CF86E191E0909311028093100280915B
:100B90006801909169018051924071F4E0912302C3
:100BA000F091240290818091250280958923808391
:100BB0001092690110926801089597FB072E16F4B0
:100BC000009407D077FD09D00E94F10507FC05D0FD
:100BD0003EF4909581959F4F0895709561957F4F54
:100BE0000895AA1BBB1B51E107C0AA1FBB1FA61774
:100BF000B70710F0A61BB70B881F991F5A95A9F7C6
:100C000080959095BC01CD010895EE0FFF1F0590D2
:100C1000F491E02D099410E0C2E6D0E004C0FE019A
:100C20000E9405062196C336D107C9F7F894FFCF75
:100C3000000000002D018D00BA007A01EB00C90010
:100C4000DD0000000000E4018D007902E3014002B4
:060C50005802CB01410037
:00000001FF
