:100000000C9435000C945D000C945D000C945D0024
:100010000C945D000C945D000C945D000C945D00EC
:100020000C945D000C945D000C945D000C945D00DC
:100030000C945D000C945D000C945D000C945D00CC
:100040000C94E9010C945D000C94B7010C9491019F
:100050000C945D000C945D000C945D000C945D00AC
:100060000C945D000C945D004A0311241FBECFEF79
:10007000D8E0DEBFCDBF11E0A0E0B1E0E2E4F7E000
:1000800002C005900D92A231B107D9F721E0A2E19B
:10009000B1E001C01D92A83BB207E1F710E0C5E353
:1000A000D0E004C02197FE010E949903C433D10718
:1000B000C9F70E9433020C949F030C940000AF9286
:1000C000BF92CF92DF92EF92FF920F931F93CF9345
:1000D000DF936C017B018B01040F151FEB015E01A7
:1000E000AE18BF08C017D10759F06991D601ED913C
:1000F000FC910190F081E02DC6010995892B79F7DB
:10010000C501DF91CF911F910F91FF90EF90DF908C
:10011000CF90BF90AF900895FC01538D448D252F53
:1001200030E0842F90E0821B930B541710F0CF9691
:10013000089501970895FC01918D828D981761F0C3
:10014000A28DAE0FBF2FB11D5D968C91928D9F5FDA
:100150009F73928F90E008958FEF9FEF0895FC01B9
:10016000918D828D981731F0828DE80FF11D858D6C
:1001700090E008958FEF9FEF0895FC01918D228DFF
:10018000892F90E0805C9F4F821B91098F73992784
:1001900008958BE191E00E94BD0021E0892B09F4D4
:1001A00020E0822F089580E090E0892B29F00E94C2
:1001B000C90081110C9400000895FC01A48DA80FC2
:1001C000B92FB11DA35ABF4F2C91848D90E0019699
:1001D0008F739927848FA689B7892C93A089B189B9
:1001E0008C91837080648C93938D848D981306C05A
:1001F0000288F389E02D80818F7D80830895EF92BE
:10020000FF920F931F93CF93DF93EC0181E0888FD0
:100210009B8D8C8D98131AC0E889F989808185FFA0
:1002200015C09FB7F894EE89FF896083E889F98942
:1002300080818370806480839FBF81E090E0DF9144
:10024000CF911F910F91FF90EF900895F62E0B8D97
:1002500010E00F5F1F4F0F731127E02E8C8D8E1152
:100260000CC00FB607FCFACFE889F989808185FFB9
:10027000F5CFCE010E94DD00F1CFEB8DEC0FFD2F0D
:10028000F11DE35AFF4FF0829FB7F8940B8FEA8974
:10029000FB8980818062CFCFCF93DF93EC01888D83
:1002A0008823B9F0AA89BB89E889F9898C9185FDF1
:1002B00003C0808186FD0DC00FB607FCF7CF8C917F
:1002C00085FFF2CF808185FFEDCFCE010E94DD005A
:1002D000E9CFDF91CF9108953FB7F894809117014E
:1002E00090911801A0911901B0911A0126B5A89B0F
:1002F00005C02F3F19F00196A11DB11D3FBFBA2FB8
:10030000A92F982F8827BC01CD01620F711D811D77
:10031000911D42E0660F771F881F991F4A95D1F7FC
:1003200008951F920F920FB60F9211242F933F93AF
:100330004F935F936F937F938F939F93AF93BF93ED
:10034000EF93FF938BE191E00E94DD00FF91EF912D
:10035000BF91AF919F918F917F916F915F914F91DD
:100360003F912F910F900FBE0F901F9018951F92E5
:100370000F920FB60F9211242F938F939F93EF93A9
:10038000FF93E0912B01F0912C018081E0913101EC
:10039000F091320182FD1BC09081809134018F5F0A
:1003A0008F7320913501821741F0E0913401F0E024
:1003B000E55EFE4F958F80933401FF91EF919F9101
:1003C0008F912F910F900FBE0F901F9018958081E5
:1003D000F4CF1F920F920FB60F9211242F933F93D9
:1003E0008F939F93AF93BF938091130190911401CA
:1003F000A0911501B09116013091120123E0230F55
:100400002D3758F50196A11DB11D2093120180933F
:10041000130190931401A0931501B09316018091DC
:10042000170190911801A0911901B0911A0101963C
:10043000A11DB11D8093170190931801A09319017C
:10044000B0931A01BF91AF919F918F913F912F91DE
:100450000F900FBE0F901F90189526E8230F02965D
:10046000A11DB11DD2CFCF93DF93CDB7DEB7A1973A
:100470000FB6F894DEBF0FBECDBF789484B582600E
:1004800084BD84B5816084BD85B5826085BD85B538
:10049000816085BD80916E00816080936E001092B6
:1004A0008100809181008260809381008091810031
:1004B00081608093810080918000816080938000C2
:1004C0008091B10084608093B1008091B000816020
:1004D0008093B00080917A00846080937A0080914C
:1004E0007A00826080937A0080917A0081608093A4
:1004F0007A0080917A00806880937A001092C1001F
:10050000E0912B01F0912C0182E08083E0912701A2
:10051000F09128011082E0912901F0912A0187E6EB
:10052000808310923301E0912F01F091300186E039
:100530008083E0912D01F0912E0180818061808384
:10054000E0912D01F0912E01808188608083E091FF
:100550002D01F0912E01808180688083E0912D0132
:10056000F0912E0180818F7D808390E4392E2AE0E6
:10057000822E912CA12CB12C30927C0080917A009B
:10058000806480937A0080917A0086FDFCCF909100
:100590007800809179008927982789272C01092ED6
:1005A000000C6608770897FF5FC06DE28BE191E071
:1005B0000E94FF0022273327A90124193509460983
:1005C000570919A28E010F5D1F4FCA01B901A5017C
:1005D00094010E947703605DF80162938F012115F9
:1005E00031054105510589F70115110561F00190AB
:1005F0000020E9F73197AF01401B510BB8018BE1A7
:1006000091E00E945F000E946C016B017C0184E616
:10061000482E512C612C712C0E946C016C197D09A3
:100620008E099F09683E734081059105A8F3F1E0AA
:100630004F1A51086108710828EEC20E23E0D21E3D
:10064000E11CF11C411451046104710429F780E09C
:1006500090E0892B09F490CF0E94C900882309F407
:100660008BCF0E94000088CFA301920119A28E01B6
:100670000F5D1F4FCA01B901A50194010E947703C4
:10068000605DF80162938F01211531054105510527
:1006900089F7AACFEBE1F1E01382128288EE93E0B2
:1006A000A0E0B0E084839583A683B78384E091E0E3
:1006B0009183808385EC90E09587848784EC90E03B
:1006C0009787868780EC90E0918B808B81EC90E01F
:1006D000938B828B82EC90E0958B848B86EC90E000
:1006E000978B868B118E128E138E148E0895A1E235
:1006F0001A2EAA1BBB1BFD010DC0AA1FBB1FEE1F9C
:10070000FF1FA217B307E407F50720F0A21BB30BE6
:10071000E40BF50B661F771F881F991F1A9469F762
:1007200060957095809590959B01AC01BD01CF01BE
:100730000895EE0FFF1F0590F491E02D0994F894B1
:02074000FFCFE9
:1007420000000000FF005F008C004C01BD009B0018
:02075200AF00F6
:00000001FF
