:100000000C9461000C947E000C947E000C947E0095
:100010000C947E000C947E000C947E000C947E0068
:100020000C947E000C947E000C947E000C947E0058
:100030000C947E000C947E000C947E000C947E0048
:100040000C948B010C947E000C947E000C947E002A
:100050000C947E000C947E000C947E000C947E0028
:100060000C947E000C947E00000000002400270009
:100070002A0000000000250028002B0000000000DE
:1000800023002600290004040404040404040202DA
:100090000202020203030303030301020408102007
:1000A0004080010204081020010204081020000012
:1000B0000008000201000003040700000000000027
:1000C000000011241FBECFEFD8E0DEBFCDBF11E08E
:1000D000A0E0B1E0E0E1F5E002C005900D92A230B1
:1000E000B107D9F721E0A2E0B1E001C01D92A03133
:1000F000B207E1F70E94D5010C9486020C9400002F
:10010000833081F028F4813099F08230A9F008958D
:100110008730A9F08830C9F08430B1F48091800034
:100120008F7D03C0809180008F7780938000089539
:1001300084B58F7784BD089584B58F7DFBCF809182
:10014000B0008F778093B00008958091B0008F7DCC
:10015000F9CFCF93DF93282F30E0F901E255FF4F1D
:100160008491F901E656FF4FD491F901EA57FF4F08
:10017000C491CC23A1F081110E948000EC2FF0E00B
:10018000EE0FFF1FE458FF4FA591B491EC91ED23C2
:1001900081E090E009F480E0DF91CF91089580E064
:1001A00090E0FACF1F93CF93DF93282F30E0F9012F
:1001B000E255FF4F8491F901E656FF4FD491F901C2
:1001C000EA57FF4FC491CC23A9F0162F81110E944A
:1001D0008000EC2FF0E0EE0FFF1FEE58FF4FA591CF
:1001E000B4918FB7F894EC91111108C0D095DE232B
:1001F000DC938FBFDF91CF911F910895DE2BF8CF55
:10020000CF93DF9390E0FC01E656FF4F24918A578D
:100210009F4FFC0184918823D1F090E0880F991FB3
:10022000FC01E859FF4FA591B491FC01EE58FF4F36
:10023000C591D49161110EC09FB7F8948C91E22FB3
:10024000E0958E238C932881E223E8839FBFDF9182
:10025000CF9108958FB7F894EC91E22BEC938FBF78
:10026000F6CF3FB7F8948091070190910801A091D3
:100270000901B0910A0126B5A89B05C02F3F19F0CE
:100280000196A11DB11D3FBFBA2FA92F982F882716
:10029000BC01CD01620F711D811D911D42E0660FF1
:1002A000771F881F991F4A95D1F708958F929F92C3
:1002B000AF92BF92CF92DF92EF92FF920E943101F4
:1002C0004B015C018AE0C82ED12CE12CF12C0E945C
:1002D0003101681979098A099B09683E73408105D3
:1002E0009105A8F321E0C21AD108E108F10888EECF
:1002F000880E83E0981EA11CB11CC114D104E10436
:10030000F10429F7FF90EF90DF90CF90BF90AF906E
:100310009F908F9008951F920F920FB60F92112405
:100320002F933F938F939F93AF93BF93809103013C
:1003300090910401A0910501B09106013091020154
:1003400023E0230F2D3758F50196A11DB11D2093F1
:1003500002018093030190930401A0930501B093DF
:1003600006018091070190910801A0910901B091C7
:100370000A010196A11DB11D809307019093080108
:10038000A0930901B0930A01BF91AF919F918F9102
:100390003F912F910F900FBE0F901F90189526E858
:1003A000230F0296A11DB11DD2CF789484B582602F
:1003B00084BD84B5816084BD85B5826085BD85B509
:1003C000816085BD80916E00816080936E00109287
:1003D0008100809181008260809381008091810002
:1003E0008160809381008091800081608093800093
:1003F0008091B10084608093B1008091B0008160F1
:100400008093B00080917A00846080937A0080911C
:100410007A00826080937A0080917A008160809374
:100420007A0080917A00806880937A001092C100EF
:1004300061E088E00E94000161E08BE00E94000121
:1004400060E082E00E94000160E083E00E94000121
:1004500060E088E00E94D20061E08BE00E94D20060
:1004600080E0E82E80E0F82E82E00E94A9008C0156
:1004700090930F0180930E0183E00E94A900EC018C
:1004800090930D0180930C010130110559F461E046
:1004900088E00E94D20060E08BE00E94D20081E000
:1004A00080930B010E945601209751F460E088E090
:1004B0000E94D2000E9456011092000110920B017E
:1004C0000E945601209741F480910001811104C0DF
:1004D00083E00E94A900F6CF81E0809300010E9492
:1004E0005601CD2B51F480910B01811106C061E0C2
:1004F0008BE00E94D2000E9456010E945601E11436
:10050000F10409F4B1CF0E940000AECFF894FFCF00
:020510000100E8
:00000001FF
