:100000000C9458000C9480000C9480000C94800098
:100010000C9480000C9480000C9480000C94800060
:100020000C9480000C9480000C9480000C94800050
:100030000C9480000C9480000C9480000C94800040
:100040000C94CA030C9480000C9480000C948000E3
:100050000C9480000C9480000C9480000C94800020
:100060000C9414040C94800000000000250028006B
:100070002B00040404040404040402020202020229
:10008000030303030303010204081020408001025C
:1000900004081020010204081020000000080002DB
:1000A0000100000304070000000000000000330509
:1000B00011241FBECFEFD8E0DEBFCDBF11E0A0E01E
:1000C000B1E0E6ECFCE002C005900D92A834B10767
:1000D000D9F722E0A8E4B1E001C01D92A432B20732
:1000E000E1F710E0C8E5D0E004C02197FE010E94CE
:1000F0005B06C735D107C9F70E9454050C94610609
:100100000C94000008950895AF92BF92CF92DF92B1
:10011000EF92FF920F931F93CF93DF936C017B01BC
:100120008B01040F151FEB015E01AE18BF08C0174D
:10013000D10759F06991D601ED91FC910190F081C0
:10014000E02DC6010995892B79F7C501DF91CF9183
:100150001F910F91FF90EF90DF90CF90BF90AF90E5
:10016000089590E0FC01E656FF4F2491FC01EA5708
:10017000FF4F3491FC01EE58FF4FE491EE23C9F09C
:10018000222339F0233001F1A8F4213019F1223073
:1001900029F1F0E0EE0FFF1FE859FF4FA591B49150
:1001A0008FB7F894EC91611126C030953E233C93B3
:1001B0008FBF08952730A9F02830C9F0243049F7BF
:1001C000809180008F7D03C0809180008F77809325
:1001D0008000DFCF84B58F7784BDDBCF84B58F7D82
:1001E000FBCF8091B0008F778093B000D2CF809109
:1001F000B0008F7DF9CF3E2BDACF3FB7F8948091D6
:10020000FF0190910002A0910102B091020226B577
:10021000A89B05C02F3F19F00196A11DB11D3FBF3E
:10022000BA2FA92F982F8827BC01CD01620F711D0D
:10023000811D911D42E0660F771F881F991F4A9507
:10024000D1F708958F929F92AF92BF92CF92DF9293
:10025000EF92FF924B015C010E94FD006B017C015B
:100260000E94FD006C197D098E099F09683E73404C
:1002700081059105A8F321E0821A9108A108B1082F
:1002800088EEC80E83E0D81EE11CF11C8114910495
:10029000A104B10429F7FF90EF90DF90CF90BF90B9
:1002A000AF909F908F9008952091B001260F332733
:1002B000331F21323105ECF42091D401FC0190E090
:1002C00080E0243069F082E00895A091B00121918E
:1002D000AC0140575E4FA40FB52FB11D2C93019672
:1002E000861798F38091B001680F6093B00180E0A9
:1002F000089581E008951092D40181E08093D601A1
:100300001092D50161E082E10E94B10061E083E1D9
:100310000E94B100E9EBF0E080818E7F80838081D4
:100320008D7F808388E48093B80085E48093BC004F
:100330000895CF93DF9391E090938F018823B9F0D4
:10034000C091B800D091BA008091BC008A7B8093A4
:10035000BC0060E082E10E94B10060E083E10E94A5
:10036000B1000E947B01D093BA00C093B800DF9126
:10037000CF9108950895E0910A0280910902E8174B
:1003800030F4F0E0E659FE4F808190E008958FEF61
:100390009FEF089590910A02809109022FEF3FEF9D
:1003A000981748F4E92FF0E0E659FE4F208130E03D
:1003B0009F5F90930A02C90108958091090290916C
:1003C0000A02891B990B0895CF92DF92EF92FF9258
:1003D0000F931F93CF93DF937C01CB018A01209170
:1003E0006901222389F0EB016B01C40ED51ECC15E7
:1003F000DD0569F06991D701ED91FC910190F081E3
:10040000E02DC7010995F3CF642F0E945401C80164
:10041000DF91CF911F910F91FF90EF90DF90CF90E0
:100420000895CF93DF931F92CDB7DEB769832091F4
:1004300069012223F9F020910702203258F021E0CF
:1004400030E0FC013383228390E080E00F90DF9165
:10045000CF91089580910802E82FF0E0E75BFE4F0E
:10046000998190838F5F809308028093070281E0D7
:1004700090E0ECCF61E0CE0101960E945401F7CFED
:10048000CF92DF92EF92FF920F931F93CF93DF9360
:10049000FC01C48121E020936901C09348011092BE
:1004A0000802109207028485682B8BE092E00E947C
:1004B0001102D0910702D13208F092C00E94FD00D3
:1004C0006B017C018091D401811165C082E0809331
:1004D000D40181E08093D6018FEF8093D3011092F5
:1004E000F801D093F701A9E4B1E0E7EDF1E080E095
:1004F000D81385C01092F9018091F901CC0FC82B57
:10050000C093F9018091D501813009F07CC010922F
:10051000D5010E94FD006B017C018091F90180935F
:10052000BB0080918B0190918C01A0918D01B091C5
:100530008E01892B8A2B8B2B99F00E94FD00009154
:100540008B0110918C0120918D0130918E016C19DD
:100550007D098E099F090617170728073907E0F15B
:100560008091BC0083FDD9CF85EC8093BC000E94B4
:10057000FD006B017C018091D401823009F445C0FB
:100580008091D3018F3F61F18091D301803241F19D
:100590008091D30125C080918B0190918C01A09115
:1005A0008D01B0918E01892B8A2B8B2B09F48ACF78
:1005B0000E94FD0000918B0110918C0120918D0112
:1005C00030918E016C197D098E099F090617170756
:1005D0002807390708F076CF80918A010E94990197
:1005E000109208021092070210926901DF91CF91D8
:1005F0001F910F91FF90EF90DF90CF9008959D9104
:1006000091938F5F75CF85EEB0CF80918B019091E4
:100610008C01A0918D01B0918E01892B8A2B8B2B9F
:1006200009F4A9CF0E94FD0000918B0110918C016B
:1006300020918D0130918E016C197D098E099F09E1
:10064000061717072807390708F095CFC5CF089573
:1006500090E080E0089585ED8093BC0080918B014F
:1006600090918C01A0918D01B0918E010796A11DF2
:10067000B11D23E0B695A795979587952A95D1F753
:100680002091BC0024FD03C01092D4010895409134
:100690008B0150918C0160918D0170918E01452BE1
:1006A000462B472B69F30097A105B10541F025E3DF
:1006B0002A95F1F700000197A109B109E1CF8091D6
:1006C0008A010C9499010F931F93CF938C01C62F2D
:1006D0000E9440026C2F6460C8010E9440026C2F8F
:1006E0006B7FC8010E94400283EC90E00197F1F714
:1006F000CF911F910F9108950F931F93CF93DF9385
:100700008C01D62FC42F607F642B0E94630380E18D
:10071000D89FB00111246C2BC801DF91CF911F919C
:100720000F910C946303CF93DF93CDB7DEB7289777
:100730000FB6F894DEBF0FBECDBF98E0E0E0F1E069
:10074000DE01119601900D929A95E1F790911F02AA
:10075000981708F48FEF90E0880F991F21E030E0A0
:100760002C0F3D1F820F931FFC016081606840E0E9
:1007700087E192E028960FB6F894DEBF0FBECDBF9A
:10078000DF91CF910C947C0341E00E947C0381E0D7
:1007900090E008951F920F920FB60F9211242F939D
:1007A0003F938F939F93AF93BF938091FB01909161
:1007B000FC01A091FD01B091FE013091FA0123E00E
:1007C000230F2D3758F50196A11DB11D2093FA0175
:1007D0008093FB019093FC01A093FD01B093FE0177
:1007E0008091FF0190910002A0910102B09102025C
:1007F0000196A11DB11D8093FF0190930002A0936B
:100800000102B0930202BF91AF919F918F913F91EE
:100810002F910F900FBE0F901F90189526E8230F71
:100820000296A11DB11DD2CF1F920F920FB60F924B
:1008300011242F933F934F935F936F937F938F93E5
:100840009F93AF93BF93EF93FF938091B900887FFD
:10085000803609F44AC0F0F5883209F4A7C018F5CB
:10086000803109F49BC0B8F4882309F4F9C08830BA
:1008700009F494C0FF91EF91BF91AF919F918F9137
:100880007F916F915F914F913F912F910F900FBE8C
:100890000F901F901895883109F488C0803251F765
:1008A0008093D30114C0803409F49DC040F4803398
:1008B000B9F38833F9F68093D30185ECB0C0803565
:1008C00009F485C0883509F496C0883499F60E94E9
:1008D0002B03D0CF883909F48CC038F5883729F03C
:1008E00050F4883611F0803729F683E08093D401E4
:1008F0001092D20157C0883809F47BC0803919F0B2
:10090000803809F0B7CF8091D201803208F071C0F1
:10091000E091D20181E08E0F8093D2018091BB00E3
:10092000F0E0EE54FE4F80833DC0803B39F0E0F4B0
:10093000803A09F479C0883A09F09CCF84E080932A
:10094000D4011092B1011092B001E0910502F09132
:10095000060209958091B00181110FC081E080935A
:10096000B0011092900109C0803C09F4A6CF883CE8
:1009700009F4A3CF883B09F07DCFE091B10181E07C
:100980008E0F8093B101F0E0E057FE4F808180939D
:10099000BB009091B1018091B00129C08091F90113
:1009A0008093BB0085EC8093BC0064CF9091F801EC
:1009B0008091F701981758F5E091F80181E08E0FCA
:1009C0008093F801F0E0E952FE4F8081E9CFE09199
:1009D000F80181E08E0F8093F8018091BB00F0E078
:1009E000E952FE4F80839091F8018091F7019817AA
:1009F000C8F285E8D8CFE091F80181E08E0F8093AE
:100A0000F8018091BB00F0E0E952FE4F80838091B5
:100A1000D60181115CCF81E08093D50184EA809377
:100A2000BC001092D40126CF85EC8093BC001092BC
:100A3000D4018091D201803230F4E091D201F0E013
:100A4000EE54FE4F10826091D20170E0E0910302FB
:100A5000F091040282EB91E009951092D2010ACF45
:100A60001092D30134CFEBE0F2E01382128288EED1
:100A700093E0A0E0B0E084839583A683B7838CE005
:100A800091E091838083E7E1F2E0138212828EE1AC
:100A900091E091838083118687E2848380E182875D
:100AA00082E0838714860895789484B5826084BD3B
:100AB00084B5816084BD85B5826085BD85B5816062
:100AC00085BD80916E00816080936E0010928100E0
:100AD000809181008260809381008091810081609B
:100AE000809381008091800081608093800080915C
:100AF000B10084608093B1008091B00081608093E8
:100B0000B00080917A00846080937A0080917A00AE
:100B1000826080937A0080917A00816080937A006D
:100B200080917A00806880937A001092C1001092C0
:100B30000A021092090210920802109207020E9403
:100B40007B0182E890E0909306028093050283E89F
:100B500090E0909304028093030210921C02809113
:100B60002202823018F098E090931C0280931F02BA
:100B700062E370E080E090E00E9422016091230235
:100B800087E192E00E94400268EE73E080E090E02E
:100B90000E94220160E387E192E00E946303CBE4BC
:100BA000D6E4CE010197F1F760E387E192E00E947D
:100BB00063032197F1F760E387E192E00E9463030A
:100BC00083E592E00197F1F760E287E192E00E940D
:100BD000630360911C02606240E087E192E00E9442
:100BE0007C0384E080931D0240E06CE087E192E0AA
:100BF0000E947C0340E061E087E192E00E947C0378
:100C00008BE39FE10197F1F780912002882319F08F
:100C100080E00E94930382E080931E0240E066E041
:100C200087E192E00E947C0340E062E087E192E08D
:100C30000E947C038BE39FE10197F1F788E08093AA
:100C4000230260E087E192E00E944002C0E0D0E031
:100C500080E00E94930340E150E066E271E087E1AA
:100C600092E00E94840040E06CE187E192E00E9403
:100C70007C0362E370E080E090E00E94220181E06A
:100C80000E9493034FE050E067E371E087E192E058
:100C90000E94840040E06CE187E192E00E947C03C6
:100CA00062E370E080E090E00E942201209781F2F0
:100CB0000E940000CDCFEE0FFF1F0590F491E02DB4
:060CC0000994F894FFCF37
:100CC6000000400014005400000000001102E4017E
:100CD6002803BA01DD01CA01BB0100000000C403FC
:100CE600840028032703526F6D61696E546865435B
:100CF600415420422D29005F285E2D5E292F202D8C
:080D060028557755292F000044
:00000001FF
