:100000000C945D000C9485000C9485000C94850084
:100010000C9485000C9485000C9485000C9485004C
:100020000C9485000C9485000C9485000C9485003C
:100030000C9485000C9485000C9485000C9485002C
:100040000C943B040C9485000C9409040C94E30379
:100050000C9485000C9485000C9485000C9485000C
:100060000C9485040C948500000000080002010037
:100070000003040700000000000000000000000072
:10008000250028002B0000000000240027002A0083
:10009000040404040404040402020202020203032E
:1000A0000303030301020408102040800102040836
:1000B0001020010204081020B30511241FBECFEF49
:1000C000D8E0DEBFCDBF11E0A0E0B1E0E2E9FFE0A3
:1000D00002C005900D92A833B107D9F722E0A8E33A
:1000E000B1E001C01D92AA38B207E1F710E0CDE5FA
:1000F000D0E004C02197FE010E94BC07CC35D10797
:10010000C9F70E94FB050C94C7070C940000CF921E
:10011000DF92EF92FF920F931F93CF93DF936C01C7
:100120007A018B01C0E0D0E0CE15DF0589F0D8015F
:100130006D918D01D601ED91FC910190F081E02D42
:10014000C6010995892B11F47E0102C02196ECCFDE
:10015000C701DF91CF911F910F91FF90EF90DF903A
:10016000CF900895FC01918D828D981761F0828D5A
:10017000DF01A80FB11D5D968C91928D9F5F9F73DB
:10018000928F90E008958FEF9FEF0895FC01918D7D
:10019000828D981731F0828DE80FF11D858D90E0EA
:1001A00008958FEF9FEF0895FC01918D228D892F87
:1001B00090E0805C9F4F821B91098F73992708956F
:1001C00085ED91E00E94D40021E0892B09F420E024
:1001D000822F0895FC01848DDF01A80FB11DA35A61
:1001E000BF4F2C91848D90E001968F739927848F57
:1001F000A689B7892C93A089B1898C9180648C934E
:10020000938D848D981306C00288F389E02D808138
:100210008F7D80830895EF92FF920F931F93CF936A
:10022000DF93EC0181E0888F9B8D8C8D981305C046
:10023000E889F989808185FD24C0F62E0B8D10E0B8
:100240000F5F1F4F0F731127E02E8C8DE8120CC02B
:100250000FB607FCFACFE889F989808185FFF5CFD1
:10026000CE010E94EA00F1CF8B8DFE01E80FF11D57
:10027000E35AFF4FF0820B8FEA89FB89808180620D
:1002800007C0EE89FF896083E889F98980818064ED
:10029000808381E090E0DF91CF911F910F91FF90DB
:1002A000EF900895CF93DF93EC01888D8823C9F0F8
:1002B000EA89FB89808185FD05C0A889B9898C916F
:1002C00086FD0FC00FB607FCF5CF808185FFF2CF0A
:1002D000A889B9898C9185FFEDCFCE010E94EA00F3
:1002E000E7CFDF91CF91089580E090E0892B29F04E
:1002F0000E94E00081110C940000089590E0FC0140
:10030000E859FF4F3491FC01EC55FF4F2491FC015B
:10031000E057FF4FE491EE2309F43BC0332339F15A
:10032000333091F038F43130A9F0323001F584B532
:100330008F7D12C0373091F03830A1F03430B9F4ED
:10034000809180008F7D03C0809180008F778093A3
:1003500080000DC084B58F7784BD09C08091B00046
:100360008F7703C08091B0008F7D8093B000F0E064
:10037000EE0FFF1FE458FF4FA591B4918FB7F8948B
:10038000EC91611103C020952E2301C02E2B2C93DC
:100390008FBF08953FB7F8948091CA019091CB0127
:1003A000A091CC01B091CD0126B5A89B05C02F3FEF
:1003B00019F00196A11DB11D3FBFBA2FA92F982F8B
:1003C0008827820F911DA11DB11DBC01CD0142E006
:1003D000660F771F881F991F4A95D1F708958F924E
:1003E0009F92AF92BF92CF92DF92EF92FF926B01FA
:1003F0007C010E94CA014B015C01C114D104E104DB
:10040000F104F1F00E94CA01DC01CB0188199909BD
:10041000AA09BB09883E9340A105B10570F321E00C
:10042000C21AD108E108F10888EE880E83E0981E10
:10043000A11CB11CC114D104E104F10419F7DDCFF2
:10044000FF90EF90DF90CF90BF90AF909F908F90F4
:10045000089585ED8093BC008091BC0084FDFCCFA5
:100460001092D001089540915A01262F30E0240FB8
:10047000311D21323105DCF42091D0012430C9F442
:10048000FC0180E090E0861758F430915A012191E8
:10049000DC01A85CBE4FA30FB11D2C930196F3CFD6
:1004A00080915A01680F60935A0180E0089581E0BD
:1004B000089582E00895089581E090E03091D4019C
:1004C0002091D301321710F480E090E0919581954E
:1004D000910908958091D4019091D301891730F446
:1004E0008F5F8093D40180E090E008958FEF9FEFBD
:1004F00008958091D30190E02091D401821B91094D
:100500000895CF92DF92EF92FF920F931F93CF93B4
:10051000DF937C01262F972F8A018091A3018823E6
:1005200091F0C62FD72F6E01C40ED51ECC15DD0558
:1005300071F06991D701ED91FC910190F081E02D6E
:10054000C7010995F3CF642F822F0E943302C8019F
:10055000DF91CF911F910F91FF90EF90DF90CF909F
:100560000895CF93DF931F92CDB7DEB769832091B3
:10057000A3012223D1F02091D101203240F021E0CB
:1005800030E0FC013383228380E090E015C080914D
:10059000D201E82FF0E0EC55FE4F998190838F5FF8
:1005A0008093D2018093D10105C061E0CE01019614
:1005B0000E94330281E090E00F90DF91CF91089587
:1005C000CF93FC01C48121E02093A301C093C40117
:1005D0001092D2011092D1018385682B82E792E0BC
:1005E0000E94B1028091D101813208F046C0909101
:1005F000D0019111FCCF92E09093D00191E09093C3
:10060000CF019FEF9093A2011092A1018093A001CE
:10061000A4EAB1E020E831E0F9019E2F921B98177F
:1006200018F49D919193F9CF10927F0180917F01F1
:10063000CC0FC82BC0937F018091CE01813061F433
:100640001092CE0180917F018093BB008091BC000D
:1006500083FDF8CF85EC01C085EE8093BC008091CE
:10066000D0018230E1F38091A2018F3F31F080917F
:10067000A201803211F08091A2011092D201109259
:10068000D1011092A301CF9108950F931F93CF939F
:100690008C01C62F0E94E0026C2F6460C8010E948A
:1006A000E0026C2F6B7FC8010E94E00283EC90E0B7
:1006B0000197F1F7CF911F910F910895FF920F933A
:1006C0001F93CF93DF931F92CDB7DEB78C01F62E29
:1006D000962F907F692F642BC80149830E944503A0
:1006E00080E1F89EB00111244981642BC8010F906C
:1006F000DF91CF911F910F91FF900C94450341E042
:100700000E945E0381E090E008954F925F926F92A5
:100710007F92EF92FF920F931F93CF93DF93CDB70A
:10072000DEB7A1970FB6F894DEBF0FBECDBF7C0138
:10073000FA01CB0119A2223008F42AE08E010F5DE4
:100740001F4F422E512C612C712CBF01A30192012D
:100750000E949A07F901CA01015011096A3014F484
:10076000605D01C0695CD8016C93232B242B252B81
:1007700061F70115110591F0F80101900020E9F7EA
:100780003197AF01401B510BD701ED91FC910280D5
:10079000F381E02DB801C701099502C080E090E027
:1007A000A1960FB6F894DEBF0FBECDBFDF91CF91FB
:1007B0001F910F91FF90EF907F906F905F904F90FF
:1007C00008950E94C2071F920F920FB60F92112434
:1007D0002F933F934F935F936F937F938F939F9349
:1007E000AF93BF93EF93FF9385ED91E00E94EA00F2
:1007F000FF91EF91BF91AF919F918F917F916F91F9
:100800005F914F913F912F910F900FBE0F901F90CE
:1008100018951F920F920FB60F9211242F938F935A
:100820009F93EF93FF93E091E501F091E6018081C2
:10083000E091EB01F091EC0182FD12C0908180917A
:10084000EE018F5F8F732091EF01821751F0E091DD
:10085000EE01F0E0EB52FE4F958F8093EE0101C068
:100860008081FF91EF919F918F912F910F900FBEFB
:100870000F901F9018951F920F920FB60F92112490
:100880002F933F938F939F93AF93BF938091C60114
:100890009091C701A091C801B091C9013091C501E3
:1008A00023E0230F2D3720F40196A11DB11D05C0B3
:1008B00026E8230F0296A11DB11D2093C501809348
:1008C000C6019093C701A093C801B093C90180915C
:1008D000CA019091CB01A091CC01B091CD010196BC
:1008E000A11DB11D8093CA019093CB01A093CC01AF
:1008F000B093CD01BF91AF919F918F913F912F9177
:100900000F900FBE0F901F9018951F920F920FB669
:100910000F9211242F933F934F935F936F937F9385
:100920008F939F93AF93BF93EF93FF938091B90001
:10093000887F803609F49CC068F5883209F45BC072
:1009400090F4803109F454C038F4882309F4F6C0D7
:10095000883009F44DC0F6C0883109F44CC08032AB
:1009600009F45DC0EFC0803409F468C048F48033F6
:1009700009F455C0883309F0E5C08093A201D8C0BE
:10098000803509F44FC0883509F45DC0883409F01A
:10099000D9C0D6C0883909F4C7C0A8F4883709F48B
:1009A00067C038F4883609F463C0803709F460C042
:1009B000C9C0883809F4B8C0803909F45FC08038EC
:1009C00009F0C0C05BC0803B09F486C038F4803AAF
:1009D00009F466C0883A09F47FC0B4C0803C09F4C9
:1009E000A7C0883C09F4A4C0883B09F48AC0AAC007
:1009F00080917F0110C09091A1018091A001981772
:100A000070F5E091A10181E08E0F8093A101F0E0EB
:100A1000E058FE4F80818093BB0085EC86C08093B8
:100A2000A2018EC0E091A10181E08E0F8093A1010F
:100A30008091BB00F0E0E058FE4F80839091A101CF
:100A40008091A0016EC0E091A10181E08E0F8093A2
:100A5000A1018091BB00F0E0E058FE4F80838091BF
:100A6000CF0181116DC081E08093CE0184EA61C025
:100A700083E08093D00110927E01CFCF80917E01E0
:100A8000803208F051C0E0917E0181E08E0F8093AA
:100A90007E018091BB00F0E0E25AFE4F8083BDCF23
:100AA00085EC8093BC001092D00180917E01803251
:100AB00030F4E0917E01F0E0E25AFE4F1082609146
:100AC0007E0170E0E0915C01F0915D018EE591E0C6
:100AD000099510927E0136C084E08093D001109277
:100AE0005B0110925A01E0915801F091590109956A
:100AF00080915A01811105C081E080935A011092C2
:100B00003801E0915B0181E08E0F80935B01F0E0A2
:100B1000E85CFE4F80818093BB0090915B018091E7
:100B20005A01981708F479CF85E88093BC000AC071
:100B300085EC8093BC001092D00104C01092A201F9
:100B40000E942902FF91EF91BF91AF919F918F91E8
:100B50007F916F915F914F913F912F910F900FBEB9
:100B60000F901F901895E5EDF1E01382128288EE48
:100B700093E0A0E0B0E084839583A683B78326E06A
:100B800031E03183208325EC30E03587248724EC65
:100B900030E03787268720EC30E0318B208B21EC4A
:100BA00030E0338B228B22EC30E0358B248B26EC2B
:100BB00030E0378B268B118E128E138E148EE2E767
:100BC000F2E01382128284839583A683B78386E141
:100BD00091E091838083EEE7F2E01382128286E255
:100BE00091E09183808387E2848380E1818782E042
:100BF000828713860895789484B5826084BD84B515
:100C0000816084BD85B5826085BD85B5816085BD07
:100C100080916E00816080936E00109281008091BF
:100C20008100826080938100809181008160809347
:100C30008100809180008160809380008091B1006C
:100C400084608093B1008091B00081608093B00097
:100C500080917A00846080937A0080917A0082602B
:100C600080937A0080917A00816080937A008091ED
:100C70007A00806880937A001092C100E6EAF0E082
:100C80002491E2E9F0E08491882399F090E0880FC4
:100C9000991FFC01EA57FF4FA591B491FC01E4585C
:100CA000FF4F859194918FB7F894EC91E22BEC93E0
:100CB0008FBFE091E501F091E60182E08083E09151
:100CC000E101F091E2011082E091E301F091E40191
:100CD0008FEC80831092ED01E091E901F091EA013F
:100CE00086E08083E091E701F091E80180818061F6
:100CF0008083E091E701F091E80180818860808342
:100D0000E091E701F091E801808180688083E091C3
:100D1000E701F091E80180818F7D80831092D401FA
:100D20001092D3011092D2011092D1011092D001F1
:100D300081E08093CF011092CE0161E082E10E94B8
:100D40007E0161E083E10E947E018091B9008E7F87
:100D50008093B9008091B9008D7F8093B90088E4B9
:100D60008093B80085E48093BC0010928302809148
:100D70008802823018F098E0909383028093860274
:100D800062E370E080E090E00E94EF0160918902F0
:100D90008EE792E00E94E00268EE73E080E090E06F
:100DA0000E94EF0160E38EE792E00E944503CBE4EE
:100DB000D6E4CE010197F1F760E38EE792E00E945E
:100DC00045032197F1F760E38EE792E00E94450327
:100DD00083E592E00197F1F760E28EE792E00E94EE
:100DE000450360918302606240E08EE792E00E94DA
:100DF0005E0384E08093840240E06CE08EE792E042
:100E00000E945E0340E061E08EE792E00E945E0394
:100E1000CBE3DFE1CE010197F1F782E08093850219
:100E200040E066E08EE792E00E945E0340E062E010
:100E30008EE792E00E945E032197F1F788E08093AD
:100E4000890260E08EE792E00E94E0024DE050E00F
:100E50006AE271E08EE792E00E94870068EE73E03C
:100E600080E090E00E94EF0180E4B82E0BE31FE1E8
:100E7000B0927C0080917A00806480937A008091A7
:100E80007A0086FDFCCFC091780080917900D0E097
:100E9000D82BD0930101C093000140E061E08EE7C0
:100EA00092E00E945E03C8010197F1F76E010D2EDA
:100EB000000CEE08FF08D7FF14C0E0917E02F0910D
:100EC0007F020190F081E02D6DE28EE792E00995BE
:100ED00044275527BA014C195D096E097F092AE09C
:100EE00003C02AE0B701A6018EE792E00E948503C5
:100EF000E091D501F091D6010190F081E02D609153
:100F0000000185ED91E009956AEF70E080E090E0E6
:100F10000E94EF01809100019091010183359105BC
:100F200014F060E001C061E082E00E947E010E9456
:100F300074019ECFA1E21A2EAA1BBB1BFD010DC09E
:100F4000AA1FBB1FEE1FFF1FA217B307E407F50779
:100F500020F0A21BB30BE40BF50B661F771F881F55
:100F6000991F1A9469F760957095809590959B01EB
:100F7000AC01BD01CF010895EE0FFF1F0590F49164
:100F8000E02D099481E090E0F8940C94C707F89460
:020F9000FFCF91
:100F92000E00000000000B018700D400B200C60062
:100FA200520100000000B102810279026A025C0271
:100FB2005B02000000007F03870048656C6C6F2CA9
:080FC200205354493244210080
:00000001FF
