:020000040000FA
:100000000C9463000C948B000C948B000C940B02EA
:100010000C940B020C940B020C948B000C948B0030
:100020000C948B000C948B000C948B000C948B0024
:100030000C948B000C948B000C948B000C948B0014
:100040000C94C1010C948B000C948B000C948B00CD
:100050000C948B000C948B000C948B000C948B00F4
:100060000C948B000C948B000000000023002600F1
:10007000290000000000240027002A0000000000E2
:10008000250028002B0004040404040404040202D4
:100090000202020203030303030301020408102007
:1000A0004080010204081020010204081020000012
:1000B0000008000201000003040700000000000027
:1000C0000000E403510411241FBECFEFD8E0DEBFCF
:1000D000CDBF11E0A0E0B1E0E0E5F9E002C005909D
:1000E0000D92A231B107D9F721E0A2E1B1E001C040
:1000F0001D92AE37B207E1F710E0C2E6D0E004C0CF
:100100002197FE010E949504C136D107C9F70E94CC
:10011000CF020C949B040C940000AF92BF92CF923C
:10012000DF92EF92FF920F931F93CF93DF936C01B7
:100130007B018B01040F151FEB015E01AE18BF0898
:10014000C017D10759F06991D601ED91FC9101904A
:10015000F081E02DC6010995892B79F7C501DF9162
:10016000CF911F910F91FF90EF90DF90CF90BF90B4
:10017000AF900895CF93DF9390E0FC01E656FF4FD8
:1001800024918A579F4FFC0184918823D1F090E0FD
:10019000880F991FFC01EE58FF4FA591B491FC0107
:1001A000E458FF4FC591D49161110EC09FB7F894E8
:1001B0008C91E22FE0958E238C932881E223E883B3
:1001C0009FBFDF91CF9108958FB7F894EC91E22B08
:1001D000EC938FBFF6CF3FB7F89480915701909181
:1001E0005801A0915901B0915A0126B5A89B05C0AC
:1001F0002F3F19F00196A11DB11D3FBFBA2FA92FA6
:10020000982F8827BC01CD01620F711D811D911DA2
:1002100042E0660F771F881F991F4A95D1F708950E
:1002200020915D0130915E012817390771F490919A
:100230005B0180915C01981741F0E0915B01F0E077
:10024000EE5EFE4F808190E008958FEF9FEF08955E
:100250000895EF92FF920F931F93CF93DF93DC01EA
:100260005C96ED90FC905D97E114F10479F481E0E7
:1002700090E013969C938E93129790E080E0DF912C
:10028000CF911F910F91FF90EF9008955196ED91AE
:10029000FC91529750968C915097982F90950FB74C
:1002A0005E962C915E97122F127021FD6095F89446
:1002B0002081112319F1282B2083E7012197F1F7E1
:1002C00028E0462F50E0308160FF1AC0382B308381
:1002D000E7012197F1F7BA0175956795215089F7E4
:1002E000112381F08081892380830FBF5C968D91DB
:1002F0009C910197F1F781E090E0C1CF2923DCCFF9
:100300003923E5CF9081892BEFCF20915D0130918A
:100310005E012817390771F480915C0120915B011F
:1003200090E0805C9F4F821B910960E470E00E9426
:100330006D04089590E080E0089520915D01309172
:100340005E0128173907B9F490915B0180915C0137
:10035000981789F0E0915B01F0E0EE5EFE4F80813E
:1003600020915B0130E02F5F3F4F2F7333272093A5
:100370005B0190E008958FEF9FEF089590E080E09B
:1003800008951F920F920FB60F9211242F933F934F
:100390008F939F93AF93BF9380915301909154019A
:1003A000A0915501B09156013091520123E0230FE5
:1003B0002D3758F50196A11DB11D20935201809350
:1003C000530190935401A0935501B093560180912D
:1003D000570190915801A0915901B0915A0101968D
:1003E000A11DB11D8093570190935801A09359010D
:1003F000B0935A01BF91AF919F918F913F912F91EF
:100400000F900FBE0F901F90189526E8230F0296AD
:10041000A11DB11DD2CF1F920F920FB60F921124C2
:100420002F933F934F935F936F937F938F939F93FC
:10043000AF93BF93EF93FF93E0915D01F0915E0165
:10044000309749F0A685B7858585968D91FF14C0B4
:100450009C918923A1F4FF91EF91BF91AF919F915E
:100460008F917F916F915F914F913F912F910F905D
:100470000FBE0F901F9018959C91892361F7A38957
:10048000B4899C918589809589238C9386899789E5
:100490000197F1F7608D718DA685B785558538E098
:1004A00020E0CB010197F1F7822F90E09595879599
:1004B000282F4C91452309F02068315091F7868D03
:1004C00081FD209580915C0190E001968F739927C2
:1004D00030915B01381799F0A0915C01B0E0AE5EFD
:1004E000BE4F2C9380935C01828D938D0197F1F721
:1004F000A389B4898C919589892B8C93ACCF868DF7
:100500008160868FF1CF90E0FC01E255FF4F24918E
:10051000FC01E656FF4F3491FC01EA57FF4FE4918E
:10052000EE23C9F0222339F0233001F1A8F4213061
:1005300019F1223029F1F0E0EE0FFF1FE458FF4FD0
:10054000A591B4918FB7F894EC91611126C03095C4
:100550003E233C938FBF08952730A9F02830C9F07F
:10056000243049F7809180008F7D03C08091800006
:100570008F7780938000DFCF84B58F7784BDDBCF0A
:1005800084B58F7DFBCF8091B0008F778093B000D2
:10059000D2CF8091B0008F7DF9CF3E2BDACF789407
:1005A00084B5826084BD84B5816084BD85B5826078
:1005B00085BD85B5816085BD80916E008160809329
:1005C0006E00109281008091810082608093810092
:1005D00080918100816080938100809180008160A2
:1005E000809380008091B10084608093B1008091FD
:1005F000B00081608093B00080917A008460809325
:100600007A0080917A00826080937A0080917A00EB
:10061000816080937A0080917A00806880937A006C
:100620001092C10060E083E00E94BA0061E082E0C5
:100630000E94BA0010927A0110927901109278010A
:100640001092770110927601109275018DE991E078
:1006500090937C0180937B0190916B01963108F01F
:1006600047C02DEB30E030937601209375012BE9E4
:1006700031E030937801209377012CE231E0309320
:100680007A01209379012091680084E0983048F045
:1006900031E09E3008F430E081E001C0880F3A95E7
:1006A000EAF7822B809368002DE630E0983050F016
:1006B0002BE630E09E3030F02CE630E0963110F042
:1006C00030E020E03093730120937201292F30E055
:1006D000983008F06CC081E001C0880F9A95EAF765
:1006E0008093740180917B0190917C010197F1F7D7
:1006F0008091790190917A01892B49F1E0915D0116
:10070000F0915E0121E0EF35F20709F1309739F001
:10071000A389B4899C918589809589238C93809144
:100720007D018E7F80937D0110925C0110925B01B0
:100730008FE591E090935E0180935D01E0917201FD
:10074000F0917301808190917401892B8083C0E0C6
:10075000D0E06AE58FE591E00E9429010E94EB005C
:100760006B017C0184E6882E912CA12CB12C0E9477
:10077000EB006C197D098E099F09683E7340810565
:100780009105A8F381E0881A9108A108B10828EE24
:10079000C20E23E0D21EE11CF11C81149104A104BD
:1007A000B10429F72097A9F20E940000D2CF9E3011
:1007B00040F42850310981E001C0880F2A95EAF7FA
:1007C0008FCF2E503109F7CF109262011092610144
:1007D00088EE93E0A0E0B0E0809363019093640121
:1007E000A0936501B093660184E091E0909360016D
:1007F00080935F011092760110927501109278013A
:100800001092770110927A011092790110927C0176
:1008100010927B0160917D016E7F6D7F60937D0101
:100820006695617081E0682782E00E94830261E042
:1008300082E00E94BA00ECE9F0E0E491E0936F01FD
:10084000E8E8F0E0E491F0E0EE0FFF1FE458FF4F1E
:1008500085919491909371018093700160E083E0A1
:100860000E94BA0080917D0181FD04C061E083E0B7
:100870000E94830283E080936B01EDE9F0E0E49154
:10088000E0936C01E9E8F0E0E491F0E0EE0FFF1F87
:10089000E859FF4F8591949190936E0180936D017B
:1008A000089584E091E09093600180935F018091CE
:1008B0005D0190915E018F55914071F4E09172015C
:1008C000F0917301908180917401809589238083D8
:1008D00010925E0110925D01089597FB072E16F4A9
:1008E000009407D077FD09D00E94810407FC05D051
:1008F0003EF4909581959F4F0895709561957F4F37
:100900000895AA1BBB1B51E107C0AA1FBB1FA61756
:10091000B70710F0A61BB70B881F991F5A95A9F7A8
:1009200080959095BC01CD010895EE0FFF1F0590B5
:10093000F491E02D099410E0C2E6D0E004C0FE017D
:100940000E9495042196C336D107C9F7F894FFCFCA
:100950000000000029018D00BE01280185019D01D4
:02096000100184
:107E0000112484B714BE81FFF0D085E080938100F7
:107E100082E08093C00088E18093C10086E0809377
:107E2000C20080E18093C4008EE0C9D0259A86E02C
:107E300020E33CEF91E0309385002093840096BBD3
:107E4000B09BFECF1D9AA8958150A9F7CC24DD24C4
:107E500088248394B5E0AB2EA1E19A2EF3E0BF2EE7
:107E6000A2D0813461F49FD0082FAFD0023811F036
:107E7000013811F484E001C083E08DD089C08234E0
:107E800011F484E103C0853419F485E0A6D080C0E4
:107E9000853579F488D0E82EFF2485D0082F10E0AE
:107EA000102F00270E291F29000F111F8ED06801E7
:107EB0006FC0863521F484E090D080E0DECF843638
:107EC00009F040C070D06FD0082F6DD080E0C81688
:107ED00080E7D80618F4F601B7BEE895C0E0D1E017
:107EE00062D089930C17E1F7F0E0CF16F0E7DF06D8
:107EF00018F0F601B7BEE89568D007B600FCFDCFD4
:107F0000A601A0E0B1E02C9130E011968C91119780
:107F100090E0982F8827822B932B1296FA010C0160
:107F200087BEE89511244E5F5F4FF1E0A038BF0790
:107F300051F7F601A7BEE89507B600FCFDCF97BE46
:107F4000E89526C08437B1F42ED02DD0F82E2BD052
:107F50003CD0F601EF2C8F010F5F1F4F84911BD097
:107F6000EA94F801C1F70894C11CD11CFA94CF0C13
:107F7000D11C0EC0853739F428D08EE10CD085E9AC
:107F80000AD08FE07ACF813511F488E018D01DD067
:107F900080E101D065CF982F8091C00085FFFCCF94
:107FA0009093C60008958091C00087FFFCCF809118
:107FB000C00084FD01C0A8958091C6000895E0E648
:107FC000F0E098E1908380830895EDDF803219F02E
:107FD00088E0F5DFFFCF84E1DECF1F93182FE3DFCA
:107FE0001150E9F7F2DF1F91089580E0E8DFEE27F6
:047FF000FF270994CA
:027FFE00040479
:00000001FF
