:020000040000FA
:100000000C945D000C9485000C9485000C94850084
:100010000C9485000C9485000C9485000C9485004C
:100020000C9485000C9485000C9485000C9485003C
:100030000C9485000C9485000C9485000C9485002C
:100040000C94F8030C9485000C94C6030C94A00344
:100050000C9485000C9485000C9485000C9485000C
:100060000C9485000C94850000000008000201003B
:100070000003040700000000000000000000000072
:10008000250028002B0000000000240027002A0083
:10009000040404040404040402020202020203032E
:1000A0000303030301020408102040800102040836
:1000B0001020010204081020420411241FBECFEFBB
:1000C000D8E0DEBFCDBF11E0A0E0B1E0E2E1FBE0AF
:1000D00002C005900D92AC32B107D9F721E0ACE235
:1000E000B1E001C01D92AA3EB207E1F710E0CDE5F4
:1000F000D0E004C02197FE010E948105CC35D107D4
:10010000C9F70E948C040C9487050C94000090E0C1
:10011000FC01EC55FF4F249180579F4FFC018491C7
:10012000882399F090E0880F991FFC01EA57FF4F50
:10013000A591B491FC01E458FF4F859194918FB73C
:10014000F894EC91E22BEC938FBF0895AF92BF929D
:10015000CF92DF92EF92FF920F931F93CF93DF9393
:100160006C017B018B01040F151FEB015E01AE18C2
:10017000BF08C017D10759F06991D601ED91FC91E4
:100180000190F081E02DC6010995892B79F7C50111
:10019000DF91CF911F910F91FF90EF90DF90CF9063
:1001A000BF90AF900895FC01538D448D252F30E012
:1001B000842F90E0821B930B541710F0CF96089574
:1001C00001970895FC01918D828D981761F0A28DA1
:1001D000AE0FBF2FB11D5D968C91928D9F5F9F7367
:1001E000928F90E008958FEF9FEF0895FC01918D1D
:1001F000828D981731F0828DE80FF11D858D90E08A
:1002000008958FEF9FEF0895FC01918D228D892F26
:1002100090E0805C9F4F821B91098F73992708950E
:1002200085E391E00E94040121E0892B09F420E09C
:10023000822F089580E090E0892B29F00E94100120
:1002400081110C9400000895FC01A48DA80FB92F12
:10025000B11DA35ABF4F2C91848D90E001968F73EE
:100260009927848FA689B7892C93A089B1898C910D
:10027000837080648C93938D848D981306C002885C
:10028000F389E02D80818F7D80830895EF92FF9226
:100290000F931F93CF93DF93EC0181E0888F9B8DA9
:1002A0008C8D98131AC0E889F989808185FF15C063
:1002B0009FB7F894EE89FF896083E889F989808186
:1002C0008370806480839FBF81E090E0DF91CF9155
:1002D0001F910F91FF90EF900895F62E0B8D10E077
:1002E0000F5F1F4F0F731127E02E8C8D8E110CC0E6
:1002F0000FB607FCFACFE889F989808185FFF5CF31
:10030000CE010E942401F1CFEB8DEC0FFD2FF11DEA
:10031000E35AFF4FF0829FB7F8940B8FEA89FB896D
:1003200080818062CFCFCF93DF93EC01888D8823CB
:10033000B9F0AA89BB89E889F9898C9185FD03C048
:10034000808186FD0DC00FB607FCF7CF8C9185FF2D
:10035000F2CF808185FFEDCFCE010E942401E9CF4D
:10036000DF91CF91089590E0FC01E859FF4F24916F
:10037000FC01EC55FF4F3491FC01E057FF4FE49135
:10038000EE23C9F0222339F0233001F1A8F4213003
:1003900019F1223029F1F0E0EE0FFF1FE458FF4F72
:1003A000A591B4918FB7F894EC91611126C0309566
:1003B0003E233C938FBF08952730A9F02830C9F021
:1003C000243049F7809180008F7D03C080918000A8
:1003D0008F7780938000DFCF84B58F7784BDDBCFAC
:1003E00084B58F7DFBCF8091B0008F778093B00074
:1003F000D2CF8091B0008F7DF9CF3E2BDACF089518
:1004000090E080E00895CF93DF93EC0160E08E816F
:100410000E94B30161E08E810E94B30160E08E8191
:100420000E94B3018BE891E00197F1F7DF91CF9142
:100430000895CF92DF92EF92FF920F931F93CF9385
:10044000DF936C017C0187E0E80EF11CD0E0C0E096
:10045000062F10E0B8010C2E02C0759567950A941E
:10046000E2F76170F70181917F010E94B30121964B
:10047000C430D10579F7C601DF91CF911F910F915B
:10048000FF90EF90DF90CF900C940302CF92DF9219
:10049000EF92FF920F931F93CF93DF93EC01F62E11
:1004A000642F8C810E94B3018D818F3F19F060E031
:1004B0000E94B3010F2D10E08F8584FF25C06E01CF
:1004C00087E0C80ED11CF12CE12CB8010E2C02C023
:1004D000759567950A94E2F76170F60181916F0155
:1004E0000E94B301FFEFEF1AFF0A88E0E816F1045B
:1004F00061F7CE01DF91CF911F910F91FF90EF90A7
:10050000DF90CF900C940302B80184E07595679555
:100510008A95E1F7CE010E9419026F2DCE01DF917D
:10052000CF911F910F91FF90EF90DF90CF900C949F
:10053000190240E0682F82ED91E00C944602CF93BF
:10054000DF93823029F49091E10198609093E1016A
:100550008093E5011092E60180E48093E70180E159
:100560008093E80180E58093E9018091D6010E94A3
:1005700087008091D7018F3F11F00E948700809102
:10058000D8010E948700C2EDD1E09E01225D31407A
:100590008091E10184FD0AC084E090E02196281753
:1005A00039073CF48E810E948700EFCF88E090E00D
:1005B000F5CF8BE39DE00197F1F760E08091D601E4
:1005C0000E94B30160E08091D8010E94B301809144
:1005D000D7018F3F19F060E00E94B3018091E101E3
:1005E00084FD39C063E082ED91E00E941902CBE402
:1005F000D6E4CE010197F1F763E082ED91E00E942D
:1006000019022197F1F763E082ED91E00E9419024F
:1006100083E592E00197F1F762E082ED91E00E94BC
:1006200019028091E10180620E94990284E0809326
:10063000E2018CE00E94990281E00E9499028BE322
:100640009FE10197F1F782E08093E30186E0DF917B
:10065000CF910C94990280620E9499028BE496E4F7
:100660000197F1F78091E10180620E94990283E590
:1006700092E00197F1F78091E10180620E94990276
:10068000D0CF41E00E94460281E090E008958F9231
:100690009F92AF92BF92EF92FF920F931F93CF93CF
:1006A000DF93CDB7DEB7A1970FB6F894DEBF0FBECC
:1006B000CDBF7C01FA01CB0119A2223008F42AE057
:1006C0008E010F5D1F4F822E912CB12CA12CBF01EA
:1006D000A50194010E945F05F901CA016A3074F511
:1006E000605DD8016E938D01232B242B252B79F788
:1006F00090E080E0109789F0FD0101900020E9F77B
:100700003197AF014A1B5B0BD701ED91FC91028041
:10071000F381E02DB801C7010995A1960FB6F894B1
:10072000DEBF0FBECDBFDF91CF911F910F91FF9024
:10073000EF90BF90AF909F908F900895695CD1CF5C
:100740001F920F920FB60F9211242F933F934F9346
:100750005F936F937F938F939F93AF93BF93EF9329
:10076000FF9385E391E00E942401FF91EF91BF91F7
:10077000AF919F918F917F916F915F914F913F9139
:100780002F910F900FBE0F901F9018951F920F92F0
:100790000FB60F9211242F938F939F93EF93FF9394
:1007A000E0914501F09146018081E0914B01F0918B
:1007B0004C0182FD1BC0908180914E018F5F8F7331
:1007C00020914F01821741F0E0914E01F0E0EB5C87
:1007D000FE4F958F80934E01FF91EF919F918F91E6
:1007E0002F910F900FBE0F901F9018958081F4CF1E
:1007F0001F920F920FB60F9211242F933F938F9356
:100800009F93AF93BF938091310190913201A0915A
:100810003301B09134013091300123E0230F2D37A3
:1008200058F50196A11DB11D20933001809331012F
:1008300090933201A0933301B093340180912C0145
:1008400090912D01A0912E01B0912F010196A11D33
:10085000B11D80932C0190932D01A0932E01B09394
:100860002F01BF91AF919F918F913F912F910F9049
:100870000FBE0F901F90189526E8230F0296A11D1A
:10088000B11DD2CFE5E3F1E01382128288EE93E04E
:10089000A0E0B0E084839583A683B78384E091E0F1
:1008A0009183808385EC90E09587848784EC90E049
:1008B0009787868780EC90E0918B808B81EC90E02D
:1008C000938B828B82EC90E0958B848B86EC90E00E
:1008D000978B868B118E128E138E148EE2EDF1E0C3
:1008E0001382128286E191E09183808384E0848385
:1008F0008FEF858386E086838BE087838CE080871B
:100900008DE081878EE08287138614861586168691
:10091000178681E00C949F02789484B5826084BD30
:1009200084B5816084BD85B5826085BD85B58160F3
:1009300085BD80916E00816080936E001092810071
:10094000809181008260809381008091810081602C
:1009500080938100809180008160809380008091ED
:10096000B10084608093B1008091B0008160809379
:10097000B00080917A00846080937A0080917A0040
:10098000826080937A0080917A00816080937A00FF
:1009900080917A00806880937A001092C100E09183
:1009A0004501F091460182E08083E0914101F091A0
:1009B00042011082E0914301F09144018FEC808369
:1009C00010924D01E0914901F0914A0186E0808347
:1009D000E0914701F0914801808180618083E0913E
:1009E0004701F0914801808188608083E091470150
:1009F000F0914801808180688083E0914701F09107
:100A0000480180818F7D808380E480937C00809189
:100A10007A00806480937A0080917A0086FDFCCF12
:100A20008091780040917900542F482F052E000CBA
:100A3000660B770B22E085E391E00E94470382E09A
:100A40000E949F024DE050E06EE171E082ED91E086
:100A50000E94A60088EEC82E83E0D82EE12CF12C4F
:100A6000C0E0D0E0E091E501E23038F5E150F0E09F
:100A7000EE52FE4F848980680E9499022FB7F89445
:100A80006091310170913201809133019091340174
:100A90002FBFA70196010E945F05BA01A9012AE0B4
:100AA00082ED91E00E9447032097E1F20E9410013D
:100AB0008823C1F20E940000D5CFE1E0D8CFA1E2A7
:100AC0001A2EAA1BBB1BFD010DC0AA1FBB1FEE1FC8
:100AD000FF1FA217B307E407F50720F0A21BB30B13
:100AE000E40BF50B661F771F881F991F1A9469F78F
:100AF00060957095809590959B01AC01BD01CF01EB
:100B00000895EE0FFF1F0590F491E02D0994F894DD
:100B1000FFCF000000004601A600D30093010401AE
:100B2000E200F600000000004103A6000002FF0101
:0E0B300068656C6C6F2C20776F726C6421000E
:107E0000112484B714BE81FFF0D085E080938100F7
:107E100082E08093C00088E18093C10086E0809377
:107E2000C20080E18093C4008EE0C9D0259A86E02C
:107E300020E33CEF91E0309385002093840096BBD3
:107E4000B09BFECF1D9AA8958150A9F7CC24DD24C4
:107E500088248394B5E0AB2EA1E19A2EF3E0BF2EE7
:107E6000A2D0813461F49FD0082FAFD0023811F036
:107E7000013811F484E001C083E08DD089C08234E0
:107E800011F484E103C0853419F485E0A6D080C0E4
:107E9000853579F488D0E82EFF2485D0082F10E0AE
:107EA000102F00270E291F29000F111F8ED06801E7
:107EB0006FC0863521F484E090D080E0DECF843638
:107EC00009F040C070D06FD0082F6DD080E0C81688
:107ED00080E7D80618F4F601B7BEE895C0E0D1E017
:107EE00062D089930C17E1F7F0E0CF16F0E7DF06D8
:107EF00018F0F601B7BEE89568D007B600FCFDCFD4
:107F0000A601A0E0B1E02C9130E011968C91119780
:107F100090E0982F8827822B932B1296FA010C0160
:107F200087BEE89511244E5F5F4FF1E0A038BF0790
:107F300051F7F601A7BEE89507B600FCFDCF97BE46
:107F4000E89526C08437B1F42ED02DD0F82E2BD052
:107F50003CD0F601EF2C8F010F5F1F4F84911BD097
:107F6000EA94F801C1F70894C11CD11CFA94CF0C13
:107F7000D11C0EC0853739F428D08EE10CD085E9AC
:107F80000AD08FE07ACF813511F488E018D01DD067
:107F900080E101D065CF982F8091C00085FFFCCF94
:107FA0009093C60008958091C00087FFFCCF809118
:107FB000C00084FD01C0A8958091C6000895E0E648
:107FC000F0E098E1908380830895EDDF803219F02E
:107FD00088E0F5DFFFCF84E1DECF1F93182FE3DFCA
:107FE0001150E9F7F2DF1F91089580E0E8DFEE27F6
:047FF000FF270994CA
:027FFE00040479
:00000001FF
