:100000000C9463000C948B000C948B000C948D0268
:100010000C948D020C948D020C948B000C948B002C
:100020000C948B000C948B000C948B000C948B0024
:100030000C948B000C948B000C948B000C948B0014
:100040000C9443020C948B000C948B000C948B004A
:100050000C948B000C948B000C948B000C948B00F4
:100060000C948B000C948B000000000023002600F1
:10007000290000000000240027002A0000000000E2
:10008000250028002B0004040404040404040202D4
:100090000202020203030303030301020408102007
:1000A0004080010204081020010204081020000012
:1000B0000008000201000003040700000000000027
:1000C000000010047D0411241FBECFEFD8E0DEBF76
:1000D000CDBF11E0A0E0B1E0E8EAF9E002C0059090
:1000E0000D92A431B107D9F721E0A4E1B1E001C03C
:1000F0001D92A138B207E1F710E0C2E6D0E004C0DB
:100100002197FE010E94C104C136D107C9F70E94A0
:1001100005030C94C7040C940000AF92BF92CF92D9
:10012000DF92EF92FF920F931F93CF93DF936C01B7
:100130007B018B01040F151FEB015E01AE18BF0898
:10014000C017D10759F06991D601ED91FC9101904A
:10015000F081E02DC6010995892B79F7C501DF9162
:10016000CF911F910F91FF90EF90DF90CF90BF90B4
:10017000AF90089590E0FC01E255FF4F2491FC01FF
:10018000E656FF4F3491FC01EA57FF4FE491EE230E
:10019000C9F0222339F0233001F1A8F4213019F1FC
:1001A000223029F1F0E0EE0FFF1FE458FF4FA59138
:1001B000B4918FB7F894EC91611126C030953E232D
:1001C0003C938FBF08952730A9F02830C9F0243020
:1001D00049F7809180008F7D03C0809180008F77E8
:1001E00080938000DFCF84B58F7784BDDBCF84B56B
:1001F0008F7DFBCF8091B0008F778093B000D2CFFE
:100200008091B0008F7DF9CF3E2BDACFCF93DF9373
:1002100090E0FC01E656FF4F24918A579F4FFC0166
:1002200084918823D1F090E0880F991FFC01EE584B
:10023000FF4FA591B491FC01E458FF4FC591D491B3
:1002400061110EC09FB7F8948C91E22FE0958E2338
:100250008C932881E223E8839FBFDF91CF9108959B
:100260008FB7F894EC91E22BEC938FBFF6CF3FB7AA
:10027000F8948091590190915A01A0915B01B0913D
:100280005C0126B5A89B05C02F3F19F00196A11D62
:10029000B11D3FBFBA2FA92F982F8827BC01CD01D0
:1002A000620F711D811D911D42E0660F771F881F2F
:1002B000991F4A95D1F708958F929F92AF92BF925E
:1002C000CF92DF92EF92FF920E9437014B015C01C7
:1002D00088EEC82E83E0D82EE12CF12C0E94370145
:1002E000681979098A099B09683E7340810591055F
:1002F000A8F321E0C21AD108E108F10888EE880EBF
:1003000083E0981EA11CB11CC114D104E104F104C6
:1003100029F7FF90EF90DF90CF90BF90AF909F9024
:100320008F90089520915F0130916001281739075F
:1003300071F490915D0180915E01981741F0E09118
:100340005D01F0E0EC5EFE4F808190E008958FEF5C
:100350009FEF08950895EF92FF920F931F93CF930D
:10036000DF93DC015C96ED90FC905D97E114F10465
:1003700079F481E090E013969C938E93129790E02D
:1003800080E0DF91CF911F910F91FF90EF90089542
:100390005196ED91FC91529750968C915097982FD1
:1003A00090950FB75E962C915E97122F127021FDDB
:1003B0006095F8942081112319F1282B2083E701FF
:1003C0002197F1F728E0462F50E0308160FF1AC0F6
:1003D000382B3083E7012197F1F7BA0175956795BE
:1003E000215089F7112381F08081892380830FBFF9
:1003F0005C968D919C910197F1F781E090E0C1CFDF
:100400002923DCCF3923E5CF9081892BEFCF2091B1
:100410005F01309160012817390771F480915E0106
:1004200020915D0190E0805C9F4F821B910960E408
:1004300070E00E949904089590E080E00895209172
:100440005F013091600128173907B9F490915D017F
:1004500080915E01981789F0E0915D01F0E0EC5E1B
:10046000FE4F808120915D0130E02F5F3F4F2F7361
:10047000332720935D0190E008958FEF9FEF08955B
:1004800090E080E008951F920F920FB60F92112412
:100490002F933F938F939F93AF93BF938091550179
:1004A00090915601A0915701B0915801309154019B
:1004B00023E0230F2D3758F50196A11DB11D209380
:1004C00054018093550190935601A0935701B09326
:1004D00058018091590190915A01A0915B01B0910E
:1004E0005C010196A11DB11D8093590190935A01A1
:1004F000A0935B01B0935C01BF91AF919F918F91ED
:100500003F912F910F900FBE0F901F90189526E8E6
:10051000230F0296A11DB11DD2CF1F920F920FB6CD
:100520000F9211242F933F934F935F936F937F9379
:100530008F939F93AF93BF93EF93FF93E0915F01EE
:10054000F0916001309749F0A685B7858585968D35
:1005500091FF14C09C918923A1F4FF91EF91BF9169
:10056000AF919F918F917F916F915F914F913F914B
:100570002F910F900FBE0F901F9018959C9189237B
:1005800061F7A389B4899C918589809589238C938F
:10059000868997890197F1F7608D718DA685B7855A
:1005A000558538E020E0CB010197F1F7822F90E0EC
:1005B00095958795282F4C91452309F02068315057
:1005C00091F7868D81FD209580915E0190E00196E6
:1005D0008F73992730915D01381799F0A0915E01D2
:1005E000B0E0AC5EBE4F2C9380935E01828D938D04
:1005F0000197F1F7A389B4898C919589892B8C9304
:10060000ACCF868D8160868FF1CF789484B582607F
:1006100084BD84B5816084BD85B5826085BD85B5A6
:10062000816085BD80916E00816080936E00109224
:10063000810080918100826080938100809181009F
:100640008160809381008091800081608093800030
:100650008091B10084608093B1008091B00081608E
:100660008093B00080917A00846080937A008091BA
:100670007A00826080937A0080917A008160809312
:100680007A0080917A00806880937A001092C1008D
:1006900061E088E00E94060160E088E00E94BA0004
:1006A00010927D0110927C0110927B0110927A01D0
:1006B00010927901109278018DE991E090937F0179
:1006C00080937E0190916E01963108F047C02DEB2A
:1006D00030E030937901209378012BE931E03093B9
:1006E0007B0120937A012CE231E030937D0120934D
:1006F0007C012091680084E0983048F031E09E3021
:1007000008F430E081E001C0880F3A95EAF7822BC7
:10071000809368002DE630E0983050F02BE630E012
:100720009E3030F02CE630E0963110F030E020E0E2
:100730003093760120937501292F30E0983008F02E
:1007400062C081E001C0880F9A95EAF78093770133
:1007500080917E0190917F010197F1F780917C015A
:1007600090917D01892B49F1E0915F01F091600149
:1007700081E0E236F80709F1309739F0A389B489AE
:100780009C918589809589238C93809180018E7FAF
:100790008093800110925E0110925D0182E691E0EB
:1007A0009093600180935F01E0917501F091760173
:1007B000808190917701892B80830E945C0182E186
:1007C00091E0D82FFF24F39400E010E082E691E05E
:1007D0000E940702892B79F082E691E00E941F02B5
:1007E000C0916101DD2321F06C2F88E00E94BA00E6
:1007F000CF25C09361010E945C010115110531F301
:100800000E940000E3CF9E3040F42850310981E07F
:1008100001C0880F2A95EAF799CF2E503109F7CFFA
:10082000109265011092640188EE93E0A0E0B0E0C0
:100830008093660190936701A0936801B09369016A
:1008400084E091E0909363018093620110927901BA
:100850001092780110927B0110927A0110927D0122
:1008600010927C0110927F0110927E0160918001B4
:100870006E7F6D7F609380016695617081E068276F
:1008800082E00E94BA0061E082E00E940601ECE989
:10089000F0E0E491E0937201E8E8F0E0E491F0E048
:1008A000EE0FFF1FE458FF4F8591949190937401D0
:1008B0008093730160E083E00E94060180918001D3
:1008C00081FD04C061E083E00E94BA0083E0809370
:1008D0006E01EDE9F0E0E491E0936F01E9E8F0E00A
:1008E000E491F0E0EE0FFF1FE859FF4F85919491DE
:1008F0009093710180937001089584E091E090934A
:1009000063018093620180915F0190916001825642
:10091000914071F4E0917501F091760190818091A0
:1009200077018095892380831092600110925F0186
:10093000089597FB072E16F4009407D077FD09D091
:100940000E94AD0407FC05D03EF4909581959F4F21
:100950000895709561957F4F0895AA1BBB1B51E1C7
:1009600007C0AA1FBB1FA617B70710F0A61BB70B1F
:10097000881F991F5A95A9F780959095BC01CD01C4
:100980000895EE0FFF1F0590F491E02D099410E0FB
:10099000C2E6D0E004C0FE010E94C1042196C33625
:0809A000D107C9F7F894FFCF5D
:1009A80000000000AB018D004002AA0107021F02EF
:0409B80092015A004E
:00000001FF
