:100000000C9458000C9480000C9480000C94800098
:100010000C9480000C9480000C9480000C94800060
:100020000C9480000C9480000C9480000C94800050
:100030000C9480000C9480000C9480000C94800040
:100040000C943F050C9480000C940D050C94E7046F
:100050000C9480000C9480000C9480000C94800020
:100060000C9489050C9480000000000025002800F5
:100070002B00040404040404040402020202020229
:10008000030303030303010204081020408001025C
:1000900004081020010204081020000000080002DB
:1000A0000100000304070000000000000000A80693
:1000B00011241FBECFEFD8E0DEBFCDBF11E0A0E01E
:1000C000B1E0ECE0F1E102C005900D92A433B1077C
:1000D000D9F722E0A4E3B1E001C01D92AF3AB20724
:1000E000E1F710E0C8E5D0E004C02197FE010E94CE
:1000F0007E08C735D107C9F70E94F1060C94840821
:100100000C94000008950895AF92BF92CF92DF92B1
:10011000EF92FF920F931F93CF93DF936C017B01BC
:100120008B01040F151FEB015E01AE18BF08C0174D
:10013000D10759F06991D601ED91FC910190F081C0
:10014000E02DC6010995892B79F7C501DF91CF9183
:100150001F910F91FF90EF90DF90CF90BF90AF90E5
:100160000895FC01538D448D252F30E0842F90E0BD
:10017000821B930B541710F0CF96089501970895A2
:10018000FC01918D828D981761F0A28DAE0FBF2F6B
:10019000B11D5D968C91928D9F5F9F73928F90E0C1
:1001A00008958FEF9FEF0895FC01918D828D981730
:1001B00031F0828DE80FF11D858D90E008958FEF6D
:1001C0009FEF0895FC01918D228D892F90E0805C36
:1001D0009F4F821B91098F739927089589EF91E0B2
:1001E0000E94E20021E0892B09F420E0822F08958B
:1001F00080E090E0892B29F00E94EE0081110C94A0
:1002000000000895FC01A48DA80FB92FB11DA35AB9
:10021000BF4F2C91848D90E001968F739927848F26
:10022000A689B7892C93A089B1898C918370806449
:100230008C93938D848D981306C00288F389E02DEA
:1002400080818F7D80830895EF92FF920F931F939B
:10025000CF93DF93EC0181E0888F9B8D8C8D981379
:100260001AC0E889F989808185FF15C09FB7F89485
:10027000EE89FF896083E889F989808183708064D1
:1002800080839FBF81E090E0DF91CF911F910F911C
:10029000FF90EF900895F62E0B8D10E00F5F1F4F2B
:1002A0000F731127E02E8C8D8E110CC00FB607FC3A
:1002B000FACFE889F989808185FFF5CFCE010E94C8
:1002C0000201F1CFEB8DEC0FFD2FF11DE35AFF4F33
:1002D000F0829FB7F8940B8FEA89FB898081806256
:1002E000CFCFCF93DF93EC01888D8823B9F0AA8913
:1002F000BB89E889F9898C9185FD03C0808186FDE1
:100300000DC00FB607FCF7CF8C9185FFF2CF80812F
:1003100085FFEDCFCE010E940201E9CFDF91CF91A1
:10032000089590E0FC01E656FF4F2491FC01EA5746
:10033000FF4F3491FC01EE58FF4FE491EE23C9F0DA
:10034000222339F0233001F1A8F4213019F12230B1
:1003500029F1F0E0EE0FFF1FE859FF4FA591B4918E
:100360008FB7F894EC91611126C030953E233C93F1
:100370008FBF08952730A9F02830C9F0243049F7FD
:10038000809180008F7D03C0809180008F77809363
:100390008000DFCF84B58F7784BDDBCF84B58F7DC0
:1003A000FBCF8091B0008F778093B000D2CF809147
:1003B000B0008F7DF9CF3E2BDACF3FB7F894809114
:1003C000EB019091EC01A091ED01B091EE0126B509
:1003D000A89B05C02F3F19F00196A11DB11D3FBF7D
:1003E000BA2FA92F982F8827BC01CD01620F711D4C
:1003F000811D911D42E0660F771F881F991F4A9546
:10040000D1F708958F929F92AF92BF92CF92DF92D1
:10041000EF92FF924B015C010E94DD016B017C01B8
:100420000E94DD016C197D098E099F09683E7340A9
:1004300081059105A8F321E0821A9108A108B1086D
:1004400088EEC80E83E0D81EE11CF11C81149104D3
:10045000A104B10429F7FF90EF90DF90CF90BF90F7
:10046000AF909F908F90089520919C01260F332785
:10047000331F21323105ECF42091C001FC0190E0E2
:1004800080E0243069F082E00895A0919C012191E0
:10049000AC0144585E4FA40FB52FB11D2C930196AB
:1004A000861798F380919C01680F60939C0180E00F
:1004B000089581E008951092C00181E08093C20107
:1004C0001092C10161E082E10E94910161E083E14B
:1004D0000E949101E9EBF0E080818E7F8083808132
:1004E0008D7F808388E48093B80085E48093BC008E
:1004F0000895CF93DF9391E090937B018823B9F027
:10050000C091B800D091BA008091BC008A7B8093E2
:10051000BC0060E082E10E94910160E083E10E9402
:1005200091010E945B02D093BA00C093B800DF91A2
:10053000CF9108950895E091F6018091F501E817B3
:1005400030F4F0E0EA5AFE4F808190E008958FEF9A
:100550009FEF08959091F6018091F5012FEF3FEF05
:10056000981748F4E92FF0E0EA5AFE4F208130E076
:100570009F5F9093F601C90108958091F5019091D4
:10058000F601891B990B0895CF92DF92EF92FF92AB
:100590000F931F93CF93DF937C01CB018A012091AE
:1005A0005501222389F0EB016B01C40ED51ECC1539
:1005B000DD0569F06991D701ED91FC910190F08121
:1005C000E02DC7010995F3CF642F0E943402C801C2
:1005D000DF91CF911F910F91FF90EF90DF90CF901F
:1005E0000895CF93DF931F92CDB7DEB76983209133
:1005F00055012223F9F02091F301203258F021E037
:1006000030E0FC013383228390E080E00F90DF91A3
:10061000CF9108958091F401E82FF0E0EB5CFE4F5C
:10062000998190838F5F8093F4018093F30181E03F
:1006300090E0ECCF61E0CE0101960E943402F7CF4A
:10064000CF92DF92EF92FF920F931F93CF93DF939E
:10065000FC01C48121E020935501C0933401109224
:10066000F4011092F3018485682B86E992E00E94E0
:10067000F102D091F301D13208F092C00E94DD0165
:100680006B017C018091C001811165C082E0809383
:10069000C00181E08093C2018FEF8093BF0110926F
:1006A000E401D093E301A5E3B1E0E3ECF1E080E005
:1006B000D81385C01092E5018091E501CC0FC82BBD
:1006C000C093E5018091C101813009F07CC0109296
:1006D000C1010E94DD016B017C018091E5018093E5
:1006E000BB008091770190917801A0917901B09140
:1006F0007A01892B8A2B8B2B99F00E94DD010091C6
:100700007701109178012091790130917A016C196B
:100710007D098E099F090617170728073907E0F199
:100720008091BC0083FDD9CF85EC8093BC000E94F2
:10073000DD016B017C018091C001823009F445C06C
:100740008091BF018F3F61F18091BF01803241F103
:100750008091BF0125C08091770190917801A0918F
:100760007901B0917A01892B8A2B8B2B09F48ACFDE
:100770000E94DD01009177011091780120917901AB
:1007800030917A016C197D098E099F0906171707A8
:100790002807390708F076CF809176010E94790208
:1007A0001092F4011092F30110925501DF91CF9154
:1007B0001F910F91FF90EF90DF90CF9008959D9142
:1007C00091938F5F75CF85EEB0CF80917701909137
:1007D0007801A0917901B0917A01892B8A2B8B2B1A
:1007E00009F4A9CF0E94DD010091770110917801F1
:1007F0002091790130917A016C197D098E099F0948
:10080000061717072807390708F095CFC5CF0895B1
:1008100090E080E008950F931F93CF938C01C62F33
:100820000E9420036C2F6460C8010E9420036C2F7B
:100830006B7FC8010E94200383EC90E00197F1F7E1
:10084000CF911F910F9108950F931F93CF93DF9333
:100850008C01D62FC42F607F642B0E940B0480E193
:10086000D89FB00111246C2BC801DF91CF911F914B
:100870000F910C940B0440E061E082EA92E00E9448
:1008800024048BE39FE10197F1F78091AB02882369
:1008900031F040E060E882EA92E00C94240408958C
:1008A00041E00E94240481E090E008958F929F929D
:1008B000AF92BF92EF92FF920F931F93CF93DF936C
:1008C000CDB7DEB7A1970FB6F894DEBF0FBECDBF90
:1008D0007C01FA01CB0119A2223008F42AE08E0132
:1008E0000F5D1F4F822E912CB12CA12CBF01A501B1
:1008F00094010E945C08F901CA016A3074F5605DD8
:10090000D8016E938D01232B242B252B79F790E0B2
:1009100080E0109789F0FD0101900020E9F7319700
:10092000AF014A1B5B0BD701ED91FC910280F38173
:10093000E02DB801C7010995A1960FB6F894DEBF66
:100940000FBECDBFDF91CF911F910F91FF90EF9020
:10095000BF90AF909F908F900895695CD1CF85ED47
:100960008093BC008091770190917801A0917901EA
:10097000B0917A010796A11DB11D23E0B695A79508
:10098000979587952A95D1F72091BC0024FD03C047
:100990001092C001089540917701509178016091C3
:1009A000790170917A01452B462B472B69F300970B
:1009B000A105B10541F025E32A95F1F70000019763
:1009C000A109B109E1CF809176010C9479021F92BF
:1009D0000F920FB60F9211242F933F934F935F9373
:1009E0006F937F938F939F93AF93BF93EF93FF93F7
:1009F00089EF91E00E940201FF91EF91BF91AF91C9
:100A00009F918F917F916F915F914F913F912F9126
:100A10000F900FBE0F901F9018951F920F920FB658
:100A20000F9211242F938F939F93EF93FF93E09155
:100A30000902F0910A028081E0910F02F091100208
:100A400082FD1BC09081809112028F5F8F73209175
:100A50001302821741F0E0911202F0E0E750FE4FDE
:100A6000958F80931202FF91EF919F918F912F911B
:100A70000F900FBE0F901F9018958081F4CF1F929A
:100A80000F920FB60F9211242F933F938F939F9342
:100A9000AF93BF938091E7019091E801A091E901A4
:100AA000B091EA013091E60123E0230F2D3758F58C
:100AB0000196A11DB11D2093E6018093E70190935B
:100AC000E801A093E901B093EA018091EB019091D4
:100AD000EC01A091ED01B091EE010196A11DB11DB7
:100AE0008093EB019093EC01A093ED01B093EE01A4
:100AF000BF91AF919F918F913F912F910F900FBE1A
:100B00000F901F90189526E8230F0296A11DB11D86
:100B1000D2CF1F920F920FB60F9211242F933F93B3
:100B20004F935F936F937F938F939F93AF93BF93F5
:100B3000EF93FF938091B900887F803609F44AC013
:100B4000F0F5883209F4A7C018F5803109F49BC08C
:100B5000B8F4882309F4F9C0883009F494C0FF91EF
:100B6000EF91BF91AF919F918F917F916F915F9125
:100B70004F913F912F910F900FBE0F901F9018959E
:100B8000883109F488C0803251F78093BF0114C0C6
:100B9000803409F49DC040F48033B9F38833F9F60A
:100BA0008093BF0185ECB0C0803509F485C08835DD
:100BB00009F496C0883499F60E94AF04D0CF8839E2
:100BC00009F48CC038F5883729F050F4883611F0D4
:100BD000803729F683E08093C0011092BE0157C090
:100BE000883809F47BC0803919F0803809F0B7CF14
:100BF0008091BE01803208F071C0E091BE0181E0B9
:100C00008E0F8093BE018091BB00F0E0E256FE4F54
:100C100080833DC0803B39F0E0F4803A09F479C02C
:100C2000883A09F09CCF84E08093C00110929D0126
:100C300010929C01E091F101F091F20109958091EF
:100C40009C0181110FC081E080939C0110927C0176
:100C500009C0803C09F4A6CF883C09F4A3CF883BA7
:100C600009F07DCFE0919D0181E08E0F80939D0181
:100C7000F0E0E458FE4F80818093BB0090919D018D
:100C800080919C0129C08091E5018093BB0085EC97
:100C90008093BC0064CF9091E4018091E3019817A8
:100CA00058F5E091E40181E08E0F8093E401F0E0DB
:100CB000ED53FE4F8081E9CFE091E40181E08E0F9A
:100CC0008093E4018091BB00F0E0ED53FE4F808300
:100CD0009091E4018091E3019817C8F285E8D8CF9C
:100CE000E091E40181E08E0F8093E4018091BB00EC
:100CF000F0E0ED53FE4F80838091C20181115CCF03
:100D000081E08093C10184EA8093BC001092C0010D
:100D100026CF85EC8093BC001092C0018091BE016B
:100D2000803230F4E091BE01F0E0E256FE4F1082D6
:100D30006091BE0170E0E091EF01F091F0018EE969
:100D400091E009951092BE010ACF1092BF0134CFF5
:100D5000E9EFF1E01382128288EE93E0A0E0B0E0C8
:100D600084839583A683B78324E031E03183208395
:100D700025EC30E03587248724EC30E03787268760
:100D800020EC30E0318B208B21EC30E0338B228B58
:100D900022EC30E0358B248B26EC30E0378B268B31
:100DA000118E128E138E148EE6E9F2E013821282F7
:100DB00084839583A683B78386E191E091838083C2
:100DC000E2EAF2E01382128288E291E0918380836A
:100DD000118687E2848380E1828782E0838714869C
:100DE0000895789484B5826084BD84B5816084BDA3
:100DF00085B5826085BD85B5816085BD80916E00B9
:100E0000816080936E0010928100809181008260E9
:100E10008093810080918100816080938100809126
:100E200080008160809380008091B1008460809315
:100E3000B1008091B00081608093B00080917A0011
:100E4000846080937A0080917A00826080937A0037
:100E500080917A00816080937A0080917A00806826
:100E600080937A001092C1001092F6011092F50161
:100E70001092F4011092F3010E945B0282E890E06C
:100E80009093F2018093F10183E890E09093F00158
:100E90008093EF011092A7028091AD02823018F08A
:100EA00098E09093A7028093AA0262E370E080E04A
:100EB00090E00E9402026091AE0282EA92E00E94FB
:100EC000200368EE73E080E090E00E94020260E39D
:100ED00082EA92E00E940B04CBE4D6E4CE010197B3
:100EE000F1F760E382EA92E00E940B042197F1F7A8
:100EF00060E382EA92E00E940B0483E592E00197AE
:100F0000F1F760E282EA92E00E940B046091A7028E
:100F1000606240E082EA92E00E94240484E08093D0
:100F2000A80240E06CE082EA92E00E9424040E9461
:100F30003B04C2E0C093A90240E066E082EA92E08E
:100F40000E94240440E062E082EA92E00E942404CD
:100F50008BE39FE10197F1F788E08093AE0260E0B8
:100F600082EA92E00E942003E0910902F0910A02D5
:100F7000C083E0910502F09106021082E091070221
:100F8000F091080287E6808310921102E0910D0231
:100F9000F0910E0286E08083E0910B02F0910C024A
:100FA000808180618083E0910B02F0910C0280814E
:100FB00088608083E0910B02F0910C028081806850
:100FC0008083E0910B02F0910C0280818F7D808301
:100FD00010E4C0E0D0E010937C0080917A0080643F
:100FE00080937A0080917A0086FDFCCF9091780002
:100FF000809179008927982789279093F801809319
:10100000F7016C01092E000CEE08FF082AE0B70179
:10101000A60197FF0DC06DE289EF91E00E942401C7
:1010200044275527BA014C195D096E097F092AE04A
:1010300089EF91E00E94560442E050E060E371E0E5
:1010400089EF91E00E948400C090F701D090F801F0
:101050000D2C000CEE08FF082AE0B701A601F7FEF0
:101060000EC041E06DE282EA92E00E94240444272F
:101070005527BA014C195D096E097F092AE082EAF9
:1010800092E00E94560464EF71E080E090E00E94DC
:1010900002020E943B046AE070E080E090E00E945F
:1010A0000202209709F497CF0E94EE00882309F4EA
:1010B00092CF0E9400008FCFA1E21A2EAA1BBB1B69
:1010C000FD010DC0AA1FBB1FEE1FFF1FA217B30714
:1010D000E407F50720F0A21BB30BE40BF50B661F2A
:1010E000771F881F991F1A9469F7609570958095EE
:1010F00090959B01AC01BD01CF010895EE0FFF1F3C
:0C1100000590F491E02D0994F894FFCFC5
:10110C000000000024018400B1007101E200C00065
:10111C00D40000000000F102C40208049A02BD02CF
:10112C00AA029B020000000050048400080407047B
:04113C000D0A000098
:00000001FF
