:020000040000FA
:100000000C9462000C948A000C948A000C948A0070
:100010000C948A000C948A000C948A000C948A0038
:100020000C948A000C948A000C948A000C948A0028
:100030000C948A000C948A000C948A000C948A0018
:100040000C94C8020C948A000C948A000C948A00C8
:100050000C948A000C948A000C948A000C948A00F8
:100060000C948A000C948A000000000024002700F1
:100070002A0000000000250028002B0000000000DE
:1000800023002600290004040404040404040202DA
:100090000202020203030303030301020408102007
:1000A0004080010204081020010204081020000012
:1000B0000008000201000003040700000000000027
:1000C0000000CC0311241FBECFEFD8E0DEBFCDBFB0
:1000D00011E0A0E0B1E0E4EEF7E002C005900D927F
:1000E000A432B107D9F721E0A4E2B1E001C01D922A
:1000F000A734B207E1F710E0C2E6D0E004C02197D0
:10010000FE010E94EA03C136D107C9F70E9412031B
:100110000C94F0030C940000AF92BF92CF92DF9248
:10012000EF92FF920F931F93CF93DF936C017B01AC
:100130008B01040F151FEB015E01AE18BF08C0173D
:10014000D10759F06991D601ED91FC910190F081B0
:10015000E02DC6010995892B79F7C501DF91CF9173
:100160001F910F91FF90EF90DF90CF90BF90AF90D5
:100170000895833081F028F4813099F08230A9F01D
:1001800008958730A9F08830C9F08430B1F48091A7
:1001900080008F7D03C0809180008F7780938000E6
:1001A000089584B58F7784BD089584B58F7DFBCF86
:1001B0008091B0008F778093B00008958091B00057
:1001C0008F7DF9CFCF93DF93282F30E0F901E255EF
:1001D000FF4F8491F901E656FF4FD491F901EA5798
:1001E000FF4FC491CC23A1F081110E94B900EC2FE4
:1001F000F0E0EE0FFF1FE458FF4FA591B491EC9192
:10020000ED2381E090E009F480E0DF91CF91089543
:1002100080E090E0FACF1F93CF93DF93282F30E058
:10022000F901E255FF4F8491F901E656FF4FD49151
:10023000F901EA57FF4FC491CC23A9F0162F811181
:100240000E94B900EC2FF0E0EE0FFF1FEE58FF4FB9
:10025000A591B4918FB7F894EC91111108C0D09585
:10026000DE23DC938FBFDF91CF911F910895DE2BAA
:10027000F8CFCF93DF9390E0FC01E656FF4F249137
:100280008A579F4FFC0184918823D1F090E0880F1A
:10029000991FFC01E859FF4FA591B491FC01EE585C
:1002A000FF4FC591D49161110EC09FB7F8948C9106
:1002B000E22FE0958E238C932881E223E8839FBF71
:1002C000DF91CF9108958FB7F894EC91E22BEC93E6
:1002D0008FBFF6CF089590E080E00895CF93DF932D
:1002E000EC0160E08E810E940B0161E08E810E9432
:1002F0000B0160E08E810E940B018BE891E0019779
:10030000F1F7DF91CF910895CF92DF92EF92FF92B4
:100310000F931F93CF93DF936C017C0187E0E80E6E
:10032000F11CD0E0C0E0062F10E0B8010C2E02C096
:10033000759567950A94E2F76170F70181917F01E5
:100340000E940B012196C430D10579F7C601DF91D7
:10035000CF911F910F91FF90EF90DF90CF900C9471
:100360006E01CF92DF92EF92FF920F931F93CF9384
:10037000DF93EC01F62E642F8C810E940B018D819E
:100380008F3F19F060E00E940B010F2D10E08F8568
:1003900084FF25C06E0187E0C80ED11CF12CE12C32
:1003A000B8010E2C02C0759567950A94E2F761704A
:1003B000F60181916F010E940B01FFEFEF1AFF0A16
:1003C00088E0E816F10461F7CE01DF91CF911F912B
:1003D0000F91FF90EF90DF90CF900C946E01B801D9
:1003E00084E0759567958A95E1F7CE010E948401B6
:1003F0006F2DCE01DF91CF911F910F91FF90EF9064
:10040000DF90CF900C94840140E061E08FE291E0B6
:100410000E94B1018BE39FE10197F1F70895CF931B
:10042000DF93823029F490913E01986090933E01D1
:10043000809342011092430180E48093440180E163
:100440008093450180E58093460161E0809133010E
:100450000E943901809134018F3F19F061E00E94C0
:10046000390161E0809135010E943901CFE2D1E08C
:100470009E012F52314080913E0184FD0BC084E0EB
:1004800090E021962817390744F461E08E810E949C
:100490003901EECF88E090E0F4CF8BE39DE0019747
:1004A000F1F760E0809133010E940B0160E08091E0
:1004B00035010E940B01809134018F3F19F060E0FB
:1004C0000E940B0160913E0164FD3DC063E08FE23C
:1004D00091E00E948401CBE4D6E4CE010197F1F7CC
:1004E00063E08FE291E00E9484012197F1F763E0DD
:1004F0008FE291E00E94840183E592E00197F1F799
:1005000062E08FE291E00E94840160913E016062AE
:1005100040E08FE291E00E94B10184E080933F01CE
:1005200040E06CE08FE291E00E94B1010E94040281
:1005300082E08093400140E066E08FE291E0DF914D
:10054000CF910C94B101606240E08FE291E00E9493
:10055000B1018BE496E40197F1F760913E0160628E
:1005600040E08FE291E00E94B10183E592E00197C3
:10057000F1F760913E01606240E08FE291E00E94FD
:10058000B101C3CF41E00E94B10181E090E0089544
:100590001F920F920FB60F9211242F933F938F93B8
:1005A0009F93AF93BF938091290190912A01A091CD
:1005B0002B01B0912C013091280123E0230F2D371E
:1005C00058F50196A11DB11D2093280180932901A2
:1005D00090932A01A0932B01B0932C0180912401C8
:1005E00090912501A0912601B09127010196A11DAE
:1005F000B11D8093240190932501A0932601B0930F
:100600002701BF91AF919F918F913F912F910F90B3
:100610000FBE0F901F90189526E8230F0296A11D7C
:10062000B11DD2CF789484B5826084BD84B58160D9
:1006300084BD85B5826085BD85B5816085BD8091AD
:100640006E00816080936E00109281008091810025
:10065000826080938100809181008160809381001D
:10066000809180008160809380008091B1008460DF
:100670008093B1008091B00081608093B000809140
:100680007A00846080937A0080917A0082608093FF
:100690007A0080917A00816080937A0080917A005C
:1006A000806880937A001092C10082E00E940F025D
:1006B0000E94040260E083E00E94390160E084E06F
:1006C0000E94390161E085E00E94390161E086E025
:1006D0000E94390100E010E083E00E94E200EC019A
:1006E00081E0209709F480E080932E0184E00E944D
:1006F000E20021E0892B09F420E020932D01CD2B8D
:10070000D1F04AE050E06CE071E08FE291E00E94AD
:100710008C0083E00E94E20021E0892B09F420E0B4
:1007200020932E0180912E01882329F061E085E03D
:100730000E940B01EECF0E94040260E085E00E945F
:100740000B0180912D018823D1F04CE050E067E14E
:1007500071E08FE291E00E948C0084E00E94E20050
:1007600021E0892B09F420E020932D0180912D01B7
:10077000882329F061E086E00E940B01EECF0E9401
:10078000040260E086E00E940B010115110509F4E6
:10079000A3CF0E940000A0CFEFE2F1E0138212820B
:1007A00084E091E0918380838DE084838CE0858375
:1007B0008BE086838AE0878389E0808788E0818771
:1007C00087E082871386148615861686178681E051
:1007D0000C940F02EE0FFF1F0590F491E02D099489
:1007E000F894FFCF00000000C2028C006B016A0188
:1007F00053656E7320747269676F0053656E732062
:08080000686F72616972650006
:107E0000112484B714BE81FFF0D085E080938100F7
:107E100082E08093C00088E18093C10086E0809377
:107E2000C20080E18093C4008EE0C9D0259A86E02C
:107E300020E33CEF91E0309385002093840096BBD3
:107E4000B09BFECF1D9AA8958150A9F7CC24DD24C4
:107E500088248394B5E0AB2EA1E19A2EF3E0BF2EE7
:107E6000A2D0813461F49FD0082FAFD0023811F036
:107E7000013811F484E001C083E08DD089C08234E0
:107E800011F484E103C0853419F485E0A6D080C0E4
:107E9000853579F488D0E82EFF2485D0082F10E0AE
:107EA000102F00270E291F29000F111F8ED06801E7
:107EB0006FC0863521F484E090D080E0DECF843638
:107EC00009F040C070D06FD0082F6DD080E0C81688
:107ED00080E7D80618F4F601B7BEE895C0E0D1E017
:107EE00062D089930C17E1F7F0E0CF16F0E7DF06D8
:107EF00018F0F601B7BEE89568D007B600FCFDCFD4
:107F0000A601A0E0B1E02C9130E011968C91119780
:107F100090E0982F8827822B932B1296FA010C0160
:107F200087BEE89511244E5F5F4FF1E0A038BF0790
:107F300051F7F601A7BEE89507B600FCFDCF97BE46
:107F4000E89526C08437B1F42ED02DD0F82E2BD052
:107F50003CD0F601EF2C8F010F5F1F4F84911BD097
:107F6000EA94F801C1F70894C11CD11CFA94CF0C13
:107F7000D11C0EC0853739F428D08EE10CD085E9AC
:107F80000AD08FE07ACF813511F488E018D01DD067
:107F900080E101D065CF982F8091C00085FFFCCF94
:107FA0009093C60008958091C00087FFFCCF809118
:107FB000C00084FD01C0A8958091C6000895E0E648
:107FC000F0E098E1908380830895EDDF803219F02E
:107FD00088E0F5DFFFCF84E1DECF1F93182FE3DFCA
:107FE0001150E9F7F2DF1F91089580E0E8DFEE27F6
:047FF000FF270994CA
:027FFE00040479
:00000001FF
