:100000000C9461000C947E000C947E000C947E0095
:100010000C947E000C947E000C947E000C947E0068
:100020000C947E000C947E000C947E000C947E0058
:100030000C947E000C947E000C947E000C947E0048
:100040000C943E010C947E000C947E000C947E0077
:100050000C947E000C947E000C947E000C947E0028
:100060000C947E000C947E00000000002400270009
:100070002A0000000000250028002B0000000000DE
:1000800023002600290004040404040404040202DA
:100090000202020203030303030301020408102007
:1000A0004080010204081020010204081020000012
:1000B0000008000201000003040700000000000027
:1000C000000011241FBECFEFD8E0DEBFCDBF11E08E
:1000D000A0E0B1E0EEE9F4E002C005900D92A2309C
:1000E000B107D9F721E0A2E0B1E001C01D92AF3025
:1000F000B207E1F70E9488010C944D020C940000B5
:10010000833081F028F4813099F08230A1F0089595
:100110008730A9F08830B9F08430D1F48091800024
:100120008F7D03C0809180008F7780938000089539
:1001300084B58F7702C084B58F7D84BD089580918A
:10014000B0008F7703C08091B0008F7D8093B000A6
:100150000895CF93DF93282F30E0F901E255FF4F48
:100160008491F901E656FF4FD491F901EA57FF4F08
:10017000C491CC2391F081110E948000EC2FF0E01B
:10018000EE0FFF1FE458FF4FA591B491EC91ED23C2
:1001900081E090E021F480E002C080E090E0DF9117
:1001A000CF9108951F93CF93DF93282F30E0F9016B
:1001B000E255FF4F8491F901E656FF4FD491F901C2
:1001C000EA57FF4FC491CC23C9F0162F81110E942A
:1001D0008000EC2FF0E0EE0FFF1FEE58FF4FA591CF
:1001E000B4918FB7F894111105C09C91ED2FE09553
:1001F000E92302C0EC91ED2BEC938FBFDF91CF91FF
:100200001F910895CF93DF9390E0FC01E656FF4FD6
:100210002491FC01EA57FF4F8491882361F190E01B
:10022000880F991FFC01E859FF4FC591D491FC013B
:10023000EE58FF4FA591B491611109C09FB7F89492
:100240008881209582238883EC912E230BC0623015
:1002500061F49FB7F8943881822F80958323888337
:10026000EC912E2B2C939FBF06C08FB7F894E8819A
:100270002E2B28838FBFDF91CF9108951F920F926D
:100280000FB60F9211242F933F938F939F93AF93A9
:10029000BF9380910B0190910C01A0910D01B09141
:1002A0000E0130910A0123E0230F2D3720F401962F
:1002B000A11DB11D05C026E8230F0296A11DB11D89
:1002C00020930A0180930B0190930C01A0930D01E0
:1002D000B0930E018091060190910701A091080151
:1002E000B09109010196A11DB11D80930601909363
:1002F0000701A0930801B0930901BF91AF919F91AD
:100300008F913F912F910F900FBE0F901F901895D6
:10031000789484B5826084BD84B5816084BD85B5E0
:10032000826085BD85B5816085BD80916E008160EC
:1003300080936E0010928100809181008260809392
:100340008100809181008160809381008091800094
:100350008160809380008091B10084608093B100BF
:100360008091B00081608093B00080917A008460B9
:1003700080937A0080917A00826080937A008091E5
:100380007A00816080937A0080917A0080688093FF
:100390007A001092C10061E08BE00E94020161E0EE
:1003A00088E00E94020160E082E00E94020160E0B9
:1003B00083E00E94020161E088E00E94D20060E0D8
:1003C0008BE00E94D20080E0E82E80E0F82ECC2462
:1003D000C394D12C82E00E94A9008C019093050166
:1003E0008093040183E00E94A900EC019093030133
:1003F000809302010130110541F461E088E00E9420
:10040000D20060E08BE00E94D200CD2B39F08091C9
:10041000020190910301892B21F11CC08091000100
:1004200090910101019799F760E088E00E94D20065
:10043000109201011092000180910201909103013C
:10044000892B29F783E00E94A900909303018093F0
:100450000201F2CFE114F10409F4BCCF0E940000C4
:10046000B9CF8091000190910101892B99F761E04A
:100470008BE00E94D200D0920101C09200018091D5
:10048000020190910301892B29F783E00E94A900C2
:0E0490009093030180930201F2CFF894FFCF06
:02049E0001005B
:00000001FF
