:100000000C945D000C9485000C9485000C94850084
:100010000C9485000C9485000C9485000C9485004C
:100020000C9485000C9485000C9485000C9485003C
:100030000C9485000C9485000C9485000C9485002C
:100040000C94FA030C9485000C94C8030C94A2033E
:100050000C9485000C9485000C9485000C9485000C
:100060000C9485000C94850000000008000201003B
:100070000003040700000000000000000000000072
:10008000250028002B0000000000240027002A0083
:10009000040404040404040402020202020203032E
:1000A0000303030301020408102040800102040836
:1000B0001020010204081020440411241FBECFEFB9
:1000C000D8E0DEBFCDBF11E0A0E0B1E0E6EEFFE09A
:1000D00002C005900D92AA32B107D9F721E0AAE239
:1000E000B1E001C01D92AC3EB207E1F710E0CDE5F2
:1000F000D0E004C02197FE010E94EB07CC35D10768
:10010000C9F70E948E040C94F1070C94000090E053
:10011000FC01EC55FF4F249180579F4FFC018491C7
:10012000882399F090E0880F991FFC01EA57FF4F50
:10013000A591B491FC01E458FF4F859194918FB73C
:10014000F894EC91E22BEC938FBF0895AF92BF929D
:10015000CF92DF92EF92FF920F931F93CF93DF9393
:100160006C017B018B01040F151FEB015E01AE18C2
:10017000BF08C017D10759F06991D601ED91FC91E4
:100180000190F081E02DC6010995892B79F7C50111
:10019000DF91CF911F910F91FF90EF90DF90CF9063
:1001A000BF90AF900895FC01538D448D252F30E012
:1001B000842F90E0821B930B541710F0CF96089574
:1001C00001970895FC01918D828D981761F0A28DA1
:1001D000AE0FBF2FB11D5D968C91928D9F5F9F7367
:1001E000928F90E008958FEF9FEF0895FC01918D1D
:1001F000828D981731F0828DE80FF11D858D90E08A
:1002000008958FEF9FEF0895FC01918D228D892F26
:1002100090E0805C9F4F821B91098F73992708950E
:1002200087E391E00E94040121E0892B09F420E09A
:10023000822F089580E090E0892B29F00E94100120
:1002400081110C9400000895FC01A48DA80FB92F12
:10025000B11DA35ABF4F2C91848D90E001968F73EE
:100260009927848FA689B7892C93A089B1898C910D
:10027000837080648C93938D848D981306C002885C
:10028000F389E02D80818F7D80830895EF92FF9226
:100290000F931F93CF93DF93EC0181E0888F9B8DA9
:1002A0008C8D98131AC0E889F989808185FF15C063
:1002B0009FB7F894EE89FF896083E889F989808186
:1002C0008370806480839FBF81E090E0DF91CF9155
:1002D0001F910F91FF90EF900895F62E0B8D10E077
:1002E0000F5F1F4F0F731127E02E8C8D8E110CC0E6
:1002F0000FB607FCFACFE889F989808185FFF5CF31
:10030000CE010E942401F1CFEB8DEC0FFD2FF11DEA
:10031000E35AFF4FF0829FB7F8940B8FEA89FB896D
:1003200080818062CFCFCF93DF93EC01888D8823CB
:10033000B9F0AA89BB89E889F9898C9185FD03C048
:10034000808186FD0DC00FB607FCF7CF8C9185FF2D
:10035000F2CF808185FFEDCFCE010E942401E9CF4D
:10036000DF91CF91089590E0FC01E859FF4F24916F
:10037000FC01EC55FF4F3491FC01E057FF4FE49135
:10038000EE23C9F0222339F0233001F1A8F4213003
:1003900019F1223029F1F0E0EE0FFF1FE458FF4F72
:1003A000A591B4918FB7F894EC91611126C0309566
:1003B0003E233C938FBF08952730A9F02830C9F021
:1003C000243049F7809180008F7D03C080918000A8
:1003D0008F7780938000DFCF84B58F7784BDDBCFAC
:1003E00084B58F7DFBCF8091B0008F778093B00074
:1003F000D2CF8091B0008F7DF9CF3E2BDACF089518
:1004000090E080E00895CF93DF93EC0160E08E816F
:100410000E94B30161E08E810E94B30160E08E8191
:100420000E94B3018BE891E00197F1F7DF91CF9142
:100430000895CF92DF92EF92FF920F931F93CF9385
:10044000DF936C017C0187E0E80EF11CD0E0C0E096
:10045000062F10E0B8010C2E02C0759567950A941E
:10046000E2F76170F70181917F010E94B30121964B
:10047000C430D10579F7C601DF91CF911F910F915B
:10048000FF90EF90DF90CF900C940302CF92DF9219
:10049000EF92FF920F931F93CF93DF93EC01F62E11
:1004A000642F8C810E94B3018D818F3F19F060E031
:1004B0000E94B3010F2D10E08F8584FF25C06E01CF
:1004C00087E0C80ED11CF12CE12CB8010E2C02C023
:1004D000759567950A94E2F76170F60181916F0155
:1004E0000E94B301FFEFEF1AFF0A88E0E816F1045B
:1004F00061F7CE01DF91CF911F910F91FF90EF90A7
:10050000DF90CF900C940302B80184E07595679555
:100510008A95E1F7CE010E9419026F2DCE01DF917D
:10052000CF911F910F91FF90EF90DF90CF900C949F
:10053000190240E0682F84ED91E00C944602CF93BD
:10054000DF93823029F49091E30198609093E30166
:100550008093E7011092E80180E48093E90180E153
:100560008093EA0180E58093EB018091D8010E949D
:1005700087008091D9018F3F11F00E948700809100
:10058000DA010E948700C4EDD1E09E01245D314074
:100590008091E30184FD0AC084E090E02196281751
:1005A00039073CF48E810E948700EFCF88E090E00D
:1005B000F5CF8BE39DE00197F1F760E08091D801E2
:1005C0000E94B30160E08091DA010E94B301809142
:1005D000D9018F3F19F060E00E94B3018091E301DF
:1005E00084FD39C063E084ED91E00E941902CBE400
:1005F000D6E4CE010197F1F763E084ED91E00E942B
:1006000019022197F1F763E084ED91E00E9419024D
:1006100083E592E00197F1F762E084ED91E00E94BA
:1006200019028091E30180620E94990284E0809324
:10063000E4018CE00E94990281E00E9499028BE320
:100640009FE10197F1F782E08093E50186E0DF9179
:10065000CF910C94990280620E9499028BE496E4F7
:100660000197F1F78091E30180620E94990283E58E
:1006700092E00197F1F78091E30180620E94990274
:10068000D0CF41E00E94460281E090E00895FB0156
:1006900001900020E9F73197AF01461B570BDC01B1
:1006A000ED91FC910280F381E02D09948F929F924D
:1006B000AF92BF92EF92FF920F931F93CF93DF936E
:1006C000CDB7DEB7A1970FB6F894DEBF0FBECDBF92
:1006D0007C01FA01CB0119A2223008F42AE08E0134
:1006E0000F5D1F4F822E912CB12CA12CBF01A501B3
:1006F00094010E94C907F901CA016A300CF5605DD6
:10070000D8016E938D01232B242B252B79F790E0B4
:1007100080E0109721F0BD01C7010E944703A19618
:100720000FB6F894DEBF0FBECDBFDF91CF911F9102
:100730000F91FF90EF90BF90AF909F908F90089592
:10074000695CDECF1F920F920FB60F9211242F9388
:100750003F934F935F936F937F938F939F93AF9349
:10076000BF93EF93FF9387E391E00E942401FF91F1
:10077000EF91BF91AF919F918F917F916F915F9119
:100780004F913F912F910F900FBE0F901F90189592
:100790001F920F920FB60F9211242F938F939F9356
:1007A000EF93FF93E0914701F09148018081E09140
:1007B0004D01F0914E0182FD1BC09081809150014E
:1007C0008F5F8F7320915101821741F0E0915001AA
:1007D000F0E0E95CFE4F958F80935001FF91EF911F
:1007E0009F918F912F910F900FBE0F901F90189592
:1007F0008081F4CF1F920F920FB60F9211242F9386
:100800003F938F939F93AF93BF9380912F019091CC
:100810003001A0913101B091320130912E0123E0DD
:10082000230F2D3758F50196A11DB11D20932E01E0
:1008300080932F0190933001A0933101B093320146
:1008400080912A0190912B01A0912C01B0912D0152
:100850000196A11DB11D80932A0190932B01A093B5
:100860002C01B0932D01BF91AF919F918F913F913A
:100870002F910F900FBE0F901F90189526E8230F11
:100880000296A11DB11DD2CFE7E3F1E013821282DF
:1008900088EE93E0A0E0B0E084839583A683B783DD
:1008A00084E091E09183808385EC90E09587848754
:1008B00084EC90E09787868780EC90E0918B808B2A
:1008C00081EC90E0938B828B82EC90E0958B848B13
:1008D00086EC90E0978B868B118E128E138E148E81
:1008E000E4EDF1E01382128286E191E0918380834E
:1008F0008DE084838CE085838BE086838AE0878328
:1009000089E0808788E0818787E082871386148664
:1009100015861686178681E00C949F02789484B51C
:10092000826084BD84B5816084BD85B5826085BDEB
:1009300085B5816085BD80916E00816080936E0079
:10094000109281008091810082608093810080916B
:10095000810081608093810080918000816080931C
:1009600080008091B10084608093B1008091B000DC
:1009700081608093B00080917A00846080937A00D7
:1009800080917A00826080937A0080917A00816001
:1009900080937A0080917A00806880937A00109228
:1009A000C10082E00E949F02E1E08091E701811195
:1009B000E0E0E195F0E0EC52FE4F848980680E940F
:1009C0009902E0914701F091480182E08083E09133
:1009D0004301F09144011082E0914501F0914601FC
:1009E0008FEC808310924F01E0914B01F0914C010C
:1009F00086E08083E0914901F0914A018081806125
:100A00008083E0914901F0914A0180818860808370
:100A1000E0914901F0914A01808180688083E091F2
:100A20004901F0914A0180818F7D808380E4809329
:100A30007C0080917A00806480937A0080917A00B3
:100A400086FDFCCF80917800C0907900DC2CC82E08
:100A50000D2C000CEE08FF08C701B6010E94A2068B
:100A600020E030E040EA5BE30E94570760933301E7
:100A700070933401809335019093360122E0B701E1
:100A8000A60187E391E00E945603C0903301D09005
:100A90003401E0903501F0903601A7019601C701BD
:100AA000B6010E94C4076EE171E0811126C04601C3
:100AB0005701E894B7F82FEF3FEF4FE75FE7C50125
:100AC000B4010E94C40781110CC02FEF3FEF4FE724
:100AD0005FE7C501B4010E946C0662E271E018167E
:100AE00064F02FEF3FEF4FE75FE4C701B6010E94CC
:100AF000520718168CF466E271E084ED91E00E94D2
:100B00004703C0E0D0E02097F1F30E941001882352
:100B1000D1F30E940000F7CF2FEF3FEF4FE75FECDC
:100B2000C701B6010E946C0687FDE5CF20E030E0EA
:100B3000A901C701B6010E946C0687FF0AC041E007
:100B40006DE284ED91E00E944602F7FAF094F7F826
:100B5000F0942AE037ED43EA5BE3C701B6010E9457
:100B600000064B015C010E9471066B017C010E9432
:100B7000A0069B01AC01C501B4010E94FF054B0119
:100B80005C012AE0B701A60184ED91E00E945603C2
:100B900041E06EE284ED91E00E94460220E030E008
:100BA00040E251E4C501B4010E9457074B015C01CA
:100BB0000E9471066B01F12CE12C2AE0B701A6011D
:100BC00084ED91E00E945603C701B6010E94A00681
:100BD0009B01AC01C501B4010E94FF0520E030E09B
:100BE00040E251E40E9457070E947106AB0170E099
:100BF00060E02AE084ED91E00E94560382CF5058D5
:100C0000BB27AA270E9417060C9418070E940A0700
:100C100038F00E94110720F039F49F3F19F426F4B0
:100C20000C9407070EF4E095E7FB0C940107E92FFD
:100C30000E94290758F3BA176207730784079507BC
:100C400020F079F4A6F50C944B070EF4E0950B2EEA
:100C5000BA2FA02D0B01B90190010C01CA01A0010E
:100C60001124FF27591B99F0593F50F4503E68F169
:100C70001A16F040A22F232F342F4427585FF3CFAA
:100C8000469537952795A795F0405395C9F77EF47B
:100C90001F16BA0B620B730B840BBAF09150A1F0C4
:100CA000FF0FBB1F661F771F881FC2F70EC0BA0F4A
:100CB000621F731F841F48F4879577956795B795D2
:100CC000F7959E3F08F0B0CF9395880F08F09927CD
:100CD000EE0F9795879508950E94DD0608F481E050
:100CE00008950E94310788F09F5798F0B92F9927EF
:100CF000B751B0F0E1F0660F771F881F991F1AF007
:100D0000BA95C9F714C0B13091F00E944B07B1E019
:100D100008950C944B07672F782F8827B85F39F018
:100D2000B93FCCF3869577956795B395D9F73EF49F
:100D300090958095709561957F4F8F4F9F4F089547
:100D4000E89409C097FB3EF4909580957095619565
:100D50007F4F8F4F9F4F9923A9F0F92F96E9BB271B
:100D60009395F695879577956795B795F111F8CF97
:100D7000FAF4BB0F11F460FF1BC06F5F7F4F8F4F02
:100D80009F4F16C0882311F096E911C0772321F0F8
:100D90009EE8872F762F05C0662371F096E8862F90
:100DA00070E060E02AF09A95660F771F881FDAF7E7
:100DB000880F9695879597F90895990F0008550F14
:100DC000AA0BE0E8FEEF16161706E807F907C0F0D1
:100DD00012161306E407F50798F0621B730B840BD9
:100DE000950B39F40A2661F0232B242B252B21F4B3
:100DF00008950A2609F4A140A6958FEF811D811D53
:100E0000089597F99F6780E870E060E008959FEF8C
:100E100080EC089500240A94161617061806090691
:100E2000089500240A941216130614060506089560
:100E3000092E0394000C11F4882352F0BB0F40F4E8
:100E4000BF2B11F460FF04C06F5F7F4F8F4F9F4F28
:100E5000089557FD9058440F551F59F05F3F71F0AA
:100E60004795880F97FB991F61F09F3F79F0879511
:100E70000895121613061406551FF2CF4695F1DF9A
:100E800008C0161617061806991FF1CF869571052A
:100E9000610508940895E894BB2766277727CB015E
:100EA00097F908950E94DD0608F48FEF08950E94D7
:100EB0006A070C9418070E940A0738F00E9411076D
:100EC00020F0952311F00C9401070C9407071124CE
:100ED0000C944C070E94290770F3959FC1F3950F5E
:100EE00050E0551F629FF001729FBB27F00DB11DAE
:100EF000639FAA27F00DB11DAA1F649F6627B00D3E
:100F0000A11D661F829F2227B00DA11D621F739F26
:100F1000B00DA11D621F839FA00D611D221F749F34
:100F20003327A00D611D231F849F600D211D822F7B
:100F3000762F6A2F11249F5750409AF0F1F08823A2
:100F40004AF0EE0FFF1FBB1F661F771F881F9150CF
:100F50005040A9F79E3F510580F00C9401070C9476
:100F60004C075F3FE4F3983ED4F3869577956795F9
:100F7000B795F795E7959F5FC1F7FE2B880F911DF9
:100F80009695879597F908950E94DD06880B990B31
:100F90000895A1E21A2EAA1BBB1BFD010DC0AA1FBA
:100FA000BB1FEE1FFF1FA217B307E407F50720F0D2
:100FB000A21BB30BE40BF50B661F771F881F991F4D
:100FC0001A9469F760957095809590959B01AC0196
:100FD000BD01CF010895EE0FFF1F0590F491E02DA4
:060FE0000994F894FFCF14
:100FE600000000004601A600D30093010401E200C0
:100FF600F600000000004103A6000002FF016E613A
:0A1006006E00696E66006F766600EA
:00000001FF
