:100000000C945D000C9485000C9485000C94850084
:100010000C9485000C9485000C9485000C9485004C
:100020000C9485000C9485000C9485000C9485003C
:100030000C9485000C9485000C9485000C9485002C
:100040000C948E020C9485000C945C020C94360285
:100050000C9485000C9485000C9485000C9485000C
:100060000C9485000C9485000000000024002700FB
:100070002A0000000000250028002B0004040404CE
:100080000404040402020202020203030303030342
:10009000010204081020408001020408102001021F
:1000A00004081020000000080002010000030407FB
:1000B0000000000000000000960311241FBECFEFD7
:1000C000D8E0DEBFCDBF11E0A0E0B1E0E6E9F7E0A7
:1000D00002C005900D92A831B107D9F721E0A8E13F
:1000E000B1E001C01D92AE3BB207E1F710E0CDE5F3
:1000F000D0E004C02197FE010E94C303CC35D10794
:10010000C9F70E94D8020C94C9030C940000ECEAD1
:10011000F0E02491E8E9F0E09491E4E8F0E0E49183
:10012000EE23C9F0222339F0233001F1A8F4213065
:1001300019F1223029F1F0E0EE0FFF1FEE58FF4FCA
:10014000A591B4912FB7F894EC91811126C09095A8
:100150009E239C932FBF08952730A9F02830C9F023
:10016000243049F7209180002F7D03C0209180002A
:100170002F7720938000DFCF24B52F7724BDDBCFEE
:1001800024B52F7DFBCF2091B0002F772093B000B6
:10019000D2CF2091B0002F7DF9CF9E2BDACFAF9236
:1001A000BF92CF92DF92EF92FF920F931F93CF9364
:1001B000DF936C017B018B01040F151FEB015E01C6
:1001C000AE18BF08C017D10759F06991D601ED915B
:1001D000FC910190F081E02DC6010995892B79F7FA
:1001E000C501DF91CF911F910F91FF90EF90DF90AC
:1001F000CF90BF90AF900895FC01538D448D252F73
:1002000030E0842F90E0821B930B541710F0CF96B0
:10021000089501970895FC01918D828D981761F0E2
:10022000A28DAE0FBF2FB11D5D968C91928D9F5FF9
:100230009F73928F90E008958FEF9FEF0895FC01D8
:10024000918D828D981731F0828DE80FF11D858D8B
:1002500090E008958FEF9FEF0895FC01918D228D1E
:10026000892F90E0805C9F4F821B91098F739927A3
:10027000089581E291E00E942D0121E0892B09F48B
:1002800020E0822F089580E090E0892B29F00E94E1
:10029000390181110C9400000895FC01A48DA80F70
:1002A000B92FB11DA35ABF4F2C91848D90E00196B8
:1002B0008F739927848FA689B7892C93A089B189D8
:1002C0008C91837080648C93938D848D981306C079
:1002D0000288F389E02D80818F7D80830895EF92DD
:1002E000FF920F931F93CF93DF93EC0181E0888FF0
:1002F0009B8D8C8D98131AC0E889F989808185FFC0
:1003000015C09FB7F894EE89FF896083E889F98961
:1003100080818370806480839FBF81E090E0DF9163
:10032000CF911F910F91FF90EF900895F62E0B8DB6
:1003300010E00F5F1F4F0F731127E02E8C8D8E1171
:100340000CC00FB607FCFACFE889F989808185FFD8
:10035000F5CFCE010E944D01F1CFEB8DEC0FFD2FBB
:10036000F11DE35AFF4FF0829FB7F8940B8FEA8993
:10037000FB8980818062CFCFCF93DF93EC01888DA2
:100380008823B9F0AA89BB89E889F9898C9185FD10
:1003900003C0808186FD0DC00FB607FCF7CF8C919E
:1003A00085FFF2CF808185FFEDCFCE010E944D0108
:1003B000E9CFDF91CF9108953FB7F89480911D0167
:1003C00090911E01A0911F01B091200126B5A89B1C
:1003D00005C02F3F19F00196A11DB11D3FBFBA2FD7
:1003E000A92F982F8827BC01CD01620F711D811D97
:1003F000911D42E0660F771F881F991F4A95D1F71C
:1004000008958F929F92AF92BF92CF92DF92EF9218
:10041000FF920E94DC014B015C0188ECC82ED12CBC
:10042000E12CF12C0E94DC01681979098A099B09E9
:10043000683E734081059105A8F321E0C21AD108F6
:10044000E108F10888EE880E83E0981EA11CB11C1B
:10045000C114D104E104F10429F7FF90EF90DF907B
:10046000CF90BF90AF909F908F9008951F920F9262
:100470000FB60F9211242F933F934F935F936F9377
:100480007F938F939F93AF93BF93EF93FF9381E2FB
:1004900091E00E944D01FF91EF91BF91AF919F912B
:1004A0008F917F916F915F914F913F912F910F901D
:1004B0000FBE0F901F9018951F920F920FB60F92BC
:1004C00011242F938F939F93EF93FF93E09131012A
:1004D000F09132018081E0913701F091380182FD85
:1004E0001BC0908180913A018F5F8F7320913B01F7
:1004F000821741F0E0913A01F0E0EF5DFE4F958FF9
:1005000080933A01FF91EF919F918F912F910F90DE
:100510000FBE0F901F9018958081F4CF1F920F92FD
:100520000FB60F9211242F933F938F939F93AF9306
:10053000BF938091190190911A01A0911B01B09174
:100540001C013091180123E0230F2D3758F5019637
:10055000A11DB11D209318018093190190931A01D8
:10056000A0931B01B0931C0180911D0190911E016D
:10057000A0911F01B09120010196A11DB11D809392
:100580001D0190931E01A0931F01B0932001BF9104
:10059000AF919F918F913F912F910F900FBE0F9030
:1005A0001F90189526E8230F0296A11DB11DD2CFEA
:1005B000789484B5826084BD84B5816084BD85B53E
:1005C000826085BD85B5816085BD80916E0081604A
:1005D00080936E00109281008091810082608093F0
:1005E00081008091810081608093810080918000F2
:1005F0008160809380008091B10084608093B1001D
:100600008091B00081608093B00080917A00846016
:1006100080937A0080917A00826080937A00809142
:100620007A00816080937A0080917A00806880935C
:100630007A001092C100E8E9F0E02491E4E8F0E0EB
:100640008491882399F090E0880F991FFC01E85964
:10065000FF4FA591B491FC01EE58FF4F8591949105
:100660008FB7F894EC91E22BEC938FBFE0913101BE
:10067000F091320182E08083E0912D01F0912E0112
:100680001082E0912F01F09130018FEC8083109265
:100690003901E0913501F091360186E08083E091E7
:1006A0003301F0913401808180618083E0913301D6
:1006B000F0913401808188608083E0913301F09172
:1006C0003401808180688083E0913301F0913401AE
:1006D00080818F7D8083C0E0D0E041E050E062E126
:1006E00071E081E291E00E94CF0042E050E064E1DD
:1006F00071E081E291E00E94CF0081E291E00E94EE
:100700000B0181E00E9487000E94010280E00E94AC
:1007100087000E9401020E9401022097F1F20E94CC
:1007200039018823D1F20E940000D7CFE1E2F1E045
:100730001382128288EE93E0A0E0B0E08483958378
:10074000A683B78384E091E09183808385EC90E079
:100750009587848784EC90E09787868780EC90E08B
:10076000918B808B81EC90E0938B828B82EC90E07C
:10077000958B848B86EC90E0978B868B118E128EF6
:10078000138E148E0895EE0FFF1F0590F491E02D47
:060790000994F894FFCF6C
:10079600000000006F01CF00FC00BC012D010B0121
:0807A6001F015A000D0A0000BA
:00000001FF
