:020000040000FA
:100000000C9463000C948B000C948B000C947E0475
:100010000C947E040C947E040C948B000C948B0046
:100020000C948B000C948B000C948B000C948B0024
:100030000C948B000C948B000C948B000C948B0014
:100040000C9434040C948B000C9402040C94DC0388
:100050000C948B000C948B000C948B000C948B00F4
:100060000C948B000C948B0000000008000201002F
:100070000003040700000000000000000000000072
:1000800023002600290000000000240027002A0089
:1000900000000000250028002B00040404040404D0
:1000A0000404020202020202030303030303010227
:1000B00004081020408001020408102001020408F6
:1000C000102042054C0611241FBECFEFD8E0DEBF42
:1000D000CDBF11E0A0E0B1E0EAE3FDE002C0059091
:1000E0000D92A035B107D9F722E0A0E5B1E001C03B
:1000F0001D92A837B207E1F710E0C2E6D0E004C0D5
:100100002197FE010E948A06C136D107C9F70E94D5
:100110007A050C9490060C940000AF92BF92CF9297
:10012000DF92EF92FF920F931F93CF93DF936C01B7
:100130007B018B01040F151FEB015E01AE18BF0898
:10014000C017D10759F06991D601ED91FC9101904A
:10015000F081E02DC6010995892B79F7C501DF9162
:10016000CF911F910F91FF90EF90DF90CF90BF90B4
:10017000AF900895FC01538D448D252F30E0842FDE
:1001800090E0821B930B541710F0CF9608950197BF
:100190000895FC01918D828D981761F0A28DAE0FAC
:1001A000BF2FB11D5D968C91928D9F5F9F73928F33
:1001B00090E008958FEF9FEF0895FC01918D828D5F
:1001C000981731F0828DE80FF11D858D90E008952C
:1001D0008FEF9FEF0895FC01918D228D892F90E084
:1001E000805C9F4F821B91098F73992708958DE939
:1001F00091E00E94EB0021E0892B09F420E0822F9E
:10020000089580E090E0892B29F00E94F700811189
:100210000C9400000895FC01A48DA80FB92FB11D06
:10022000A35ABF4F2C91848D90E001968F7399272C
:10023000848FA689B7892C93A089B1898C9183700A
:1002400080648C93938D848D981306C00288F38903
:10025000E02D80818F7D80830895EF92FF920F9330
:100260001F93CF93DF93EC0181E0888F9B8D8C8D62
:1002700098131AC0E889F989808185FF15C09FB756
:10028000F894EE89FF896083E889F9898081837019
:10029000806480839FBF81E090E0DF91CF911F91C8
:1002A0000F91FF90EF900895F62E0B8D10E00F5FE9
:1002B0001F4F0F731127E02E8C8D8E110CC00FB6BF
:1002C00007FCFACFE889F989808185FFF5CFCE0157
:1002D0000E940B01F1CFEB8DEC0FFD2FF11DE35AC6
:1002E000FF4FF0829FB7F8940B8FEA89FB898081DA
:1002F0008062CFCFCF93DF93EC01888D8823B9F054
:10030000AA89BB89E889F9898C9185FD03C0808120
:1003100086FD0DC00FB607FCF7CF8C9185FFF2CF9D
:10032000808185FFEDCFCE010E940B01E9CFDF91E7
:10033000CF910895CF92DF92FF920F931F93CF93A7
:10034000DF93EC01F62E142F1B821A8288EE93E0C5
:10035000A0E0B0E08C839D83AE83BF8384E091E016
:10036000998388831F8A1E8A198E188E1B8E1A8E77
:100370001D8E1C8E6E8D6E7F6D7F6E8F669561708B
:1003800081E06827842F0E94F604412F50E09A01F3
:1003900022553F4FF901649146565F4FFA0184910F
:1003A000882399F090E0880F991FFC01EA57FF4FCE
:1003B000A591B491FC01E057FF4F859194918FB7BF
:1003C000F8949C91692B6C938FBFF9012491288B31
:1003D000FA014491E42FF0E0EE0FFF1FE057FF4FCA
:1003E000859194919A8B898B0F2D10E0C8018255CD
:1003F0009F4F6C01FC01249106561F4FF801849118
:100400008823C9F090E0880F991FFC01EA57FF4F3D
:10041000A591B491FC01E057FF4F459154913FB72E
:10042000F8949C91822F809598239C93FA01908157
:10043000892380833FBF8E8D81FD04C061E08F2DB5
:100440000E94F604FC86F601C490CD86F801049162
:10045000E02FF0E0EE0FFF1FE458FF4F85919491DD
:100460009F878E87DF91CF911F910F91FF90DF9033
:10047000CF9008953FB7F8948091990190919A0197
:10048000A0919B01B0919C0126B5A89B05C02F3F70
:1004900019F00196A11DB11D3FBFBA2FA92F982FAA
:1004A0008827BC01CD01620F711D811D911D42E0A5
:1004B000660F771F881F991F4A95D1F708958F926D
:1004C0009F92AF92BF92CF92DF92EF92FF924B0139
:1004D0005C010E943A026B017C010E943A026C1995
:1004E0007D098E099F09683E734081059105A8F337
:1004F00021E0821A9108A108B10888EEC80E83E0B5
:10050000D81EE11CF11C81149104A104B10429F747
:10051000FF90EF90DF90CF90BF90AF909F908F9023
:10052000089520919201309193012817390771F4B1
:100530009091910180919001981741F0E091910183
:10054000F0E0E05BFE4F808190E008958FEF9FEF39
:1005500008950895EF92FF920F931F93CF93DF9327
:10056000DC015C96ED90FC905D97E114F10479F468
:1005700081E090E013969C938E93129790E080E038
:10058000DF91CF911F910F91FF90EF9008955196B9
:10059000ED91FC91529750968C915097982F909591
:1005A0000FB75E962C915E97122F127021FD609509
:1005B000F8942081112319F1282B2083E70121973A
:1005C000F1F728E0462F50E0308160FF1AC0382B49
:1005D0003083E7012197F1F7BA01759567952150AE
:1005E00089F7112381F08081892380830FBF5C9676
:1005F0008D919C910197F1F781E090E0C1CF292383
:10060000DCCF3923E5CF9081892BEFCF2091920168
:10061000309193012817390771F48091900120914E
:10062000910190E0805C9F4F821B910960E470E033
:100630000E946206089590E080E008952091920162
:100640003091930128173907B9F490919101809165
:100650009001981789F0E0919101F0E0E05BFE4F86
:1006600080812091910130E02F5F3F4F2F7333271E
:100670002093910190E008958FEF9FEF0895E0910E
:100680009201F0919301E817F90769F4A389B489FD
:100690009C918589809589238C9310929301109267
:1006A000920181E0089580E00895CF93DF93EC01FB
:1006B0008A8D9B8D892B01F18091920190919301FC
:1006C0008C179D07C9F0009711F00E943F038E8D93
:1006D0008E7F8E8F1092900110929101D093930192
:1006E000C0939201EB89FC8980819D89892B80834D
:1006F00081E0DF91CF91089580E0FBCFFC01138E64
:10070000128E118E108E178A168A8DE991E0958FC0
:10071000848F84858631D8F52DEB30E0378B268B9E
:100720002BE931E0318F208F2CE231E0338F228FA3
:1007300090916800883070F121E08E3008F420E05C
:1007400081E001C0880F2A95EAF7892B8093680021
:1007500084852DE630E0883050F02BE630E08E3096
:1007600030F02CE630E0863110F030E020E0348BC1
:10077000238B282F30E0883078F491E001C0990F66
:100780008A95EAF7958B848D958D0197F1F7CF01C6
:100790000C94550384E0D9CF8E3040F428503109B1
:1007A00091E001C0990F2A95EAF7ECCF2E5031095C
:1007B000F7CF90E080E008951F920F920FB60F924E
:1007C00011242F933F934F935F936F937F938F9356
:1007D0009F93AF93BF93EF93FF938DE991E00E94B6
:1007E0000B01FF91EF91BF91AF919F918F917F91FD
:1007F0006F915F914F913F912F910F900FBE0F908E
:100800001F9018951F920F920FB60F9211242F93DD
:100810008F939F93EF93FF93E091AD01F091AE0121
:100820008081E091B301F091B40182FD1BC0908101
:100830008091B6018F5F8F732091B701821741F0CD
:10084000E091B601F0E0E356FE4F958F8093B6013C
:10085000FF91EF919F918F912F910F900FBE0F906D
:100860001F9018958081F4CF1F920F920FB60F92B0
:1008700011242F933F938F939F93AF93BF938091B6
:10088000950190919601A0919701B09198013091B6
:10089000940123E0230F2D3758F50196A11DB11DBA
:1008A000209394018093950190939601A0939701D2
:1008B000B09398018091990190919A01A0919B0128
:1008C000B0919C010196A11DB11D80939901909357
:1008D0009A01A0939B01B0939C01BF91AF919F910E
:1008E0008F913F912F910F900FBE0F901F901895F1
:1008F00026E8230F0296A11DB11DD2CF1F920F92A1
:100900000FB60F9211242F933F934F935F936F93E2
:100910007F938F939F93AF93BF93EF93FF93E09158
:100920009201F0919301309749F0A685B7858585AE
:10093000968D91FF14C09C918923A1F4FF91EF91B2
:10094000BF91AF919F918F917F916F915F914F91E7
:100950003F912F910F900FBE0F901F9018959C9173
:10096000892361F7A389B4899C918589809589231E
:100970008C93868997890197F1F7608D718DA68593
:10098000B785558538E020E0CB010197F1F7822F3C
:1009900090E095958795282F4C91452309F0206884
:1009A000315091F7868D81FD20958091900190E0E6
:1009B00001968F73992730919101381799F0A09182
:1009C0009001B0E0A05BBE4F2C9380939001828D8C
:1009D000938D0197F1F7A389B4898C919589892B1F
:1009E0008C93ACCF868D8160868FF1CF90E0FC0137
:1009F000E859FF4F2491FC01E255FF4F3491FC016F
:100A0000E656FF4FE491EE23C9F0222339F023305C
:100A100001F1A8F4213019F1223029F1F0E0EE0FB4
:100A2000FF1FE057FF4FA591B4918FB7F894EC9159
:100A3000611126C030953E233C938FBF0895273027
:100A4000A9F02830C9F0243049F7809180008F7DCB
:100A500003C0809180008F7780938000DFCF84B5C2
:100A60008F7784BDDBCF84B58F7DFBCF8091B000C5
:100A70008F778093B000D2CF8091B0008F7DF9CF77
:100A80003E2BDACFEDE9F1E01382128288EE93E09B
:100A9000A0E0B0E084839583A683B78386E191E0EC
:100AA0009183808385EC90E09587848784EC90E047
:100AB0009787868780EC90E0918B808B81EC90E02B
:100AC000938B828B82EC90E0958B848B86EC90E00C
:100AD000978B868B118E128E138E148E43E062E0FC
:100AE00089E592E00E949A0149E068E08AE392E099
:100AF0000C949A01789484B5826084BD84B5816039
:100B000084BD85B5826085BD85B5816085BD8091D8
:100B10006E00816080936E00109281008091810050
:100B20008260809381008091810081608093810048
:100B3000809180008160809380008091B10084600A
:100B40008093B1008091B00081608093B00080916B
:100B50007A00846080937A0080917A00826080932A
:100B60007A0080917A00816080937A0080917A0087
:100B7000806880937A001092C100E091AD01F091FD
:100B8000AE0182E08083E091A901F091AA01108278
:100B9000E091AB01F091AC018FEC80831092B50134
:100BA000E091B101F091B20186E08083E091AF0164
:100BB000F091B001808180618083E091AF01F0917C
:100BC000B001808188608083E091AF01F091B00135
:100BD000808180688083E091AF01F091B0018081D5
:100BE0008F7D808389E592E00E947E038AE392E014
:100BF0000E947E0368EE73E080E090E00E945F0256
:100C0000C0E0D0E089E592E00E94550344E150E065
:100C100064E271E08DE991E00E948D0089E592E047
:100C20000E940603181619068CF489E592E00E94CA
:100C30001E03182F64E670E080E090E00E945F02DF
:100C4000612F8DE991E00E942D01E8CF42E050E054
:100C500069E371E08DE991E00E948D008AE392E002
:100C60000E94550342E150E06CE371E08DE991E0B0
:100C70000E948D008AE392E00E940603181619066E
:100C8000CCF3209709F4BECF0E94F700882309F423
:100C9000B9CF0E940000B6CFCF93DF93C4E0D1E07C
:100CA000D0933B02C0933A028AE392E00E943F0352
:100CB000D0935A02C093590289E592E0DF91CF9117
:100CC0000C943F0397FB072E16F4009407D077FD92
:100CD00009D00E94760607FC05D03EF490958195D8
:100CE0009F4F0895709561957F4F0895AA1BBB1B78
:100CF00051E107C0AA1FBB1FA617B70710F0A61B1C
:100D0000B70B881F991F5A95A9F780959095BC013C
:100D1000CD010895EE0FFF1F0590F491E02D099489
:100D200010E0C2E6D0E004C0FE010E948A062196CF
:100D3000C336D107C9F7F894FFCF00000000AA021C
:100D40008D00D903A90206031E03910200000000D2
:100D50002D018D00BA007A01EB00C900DD0044616D
:100D600074612066726F6D20706F7274206F6E6593
:100D7000203A000D0A00446174612066726F6D2094
:0A0D8000706F72742074776F00002A
:107E0000112484B714BE81FFF0D085E080938100F7
:107E100082E08093C00088E18093C10086E0809377
:107E2000C20080E18093C4008EE0C9D0259A86E02C
:107E300020E33CEF91E0309385002093840096BBD3
:107E4000B09BFECF1D9AA8958150A9F7CC24DD24C4
:107E500088248394B5E0AB2EA1E19A2EF3E0BF2EE7
:107E6000A2D0813461F49FD0082FAFD0023811F036
:107E7000013811F484E001C083E08DD089C08234E0
:107E800011F484E103C0853419F485E0A6D080C0E4
:107E9000853579F488D0E82EFF2485D0082F10E0AE
:107EA000102F00270E291F29000F111F8ED06801E7
:107EB0006FC0863521F484E090D080E0DECF843638
:107EC00009F040C070D06FD0082F6DD080E0C81688
:107ED00080E7D80618F4F601B7BEE895C0E0D1E017
:107EE00062D089930C17E1F7F0E0CF16F0E7DF06D8
:107EF00018F0F601B7BEE89568D007B600FCFDCFD4
:107F0000A601A0E0B1E02C9130E011968C91119780
:107F100090E0982F8827822B932B1296FA010C0160
:107F200087BEE89511244E5F5F4FF1E0A038BF0790
:107F300051F7F601A7BEE89507B600FCFDCF97BE46
:107F4000E89526C08437B1F42ED02DD0F82E2BD052
:107F50003CD0F601EF2C8F010F5F1F4F84911BD097
:107F6000EA94F801C1F70894C11CD11CFA94CF0C13
:107F7000D11C0EC0853739F428D08EE10CD085E9AC
:107F80000AD08FE07ACF813511F488E018D01DD067
:107F900080E101D065CF982F8091C00085FFFCCF94
:107FA0009093C60008958091C00087FFFCCF809118
:107FB000C00084FD01C0A8958091C6000895E0E648
:107FC000F0E098E1908380830895EDDF803219F02E
:107FD00088E0F5DFFFCF84E1DECF1F93182FE3DFCA
:107FE0001150E9F7F2DF1F91089580E0E8DFEE27F6
:047FF000FF270994CA
:027FFE00040479
:00000001FF
